{
  "_format": "hh-sol-artifact-1",
  "contractName": "lottery",
  "sourceName": "contracts/lottery.sol",
  "abi": [
    {
      "inputs": [
        {
          "internalType": "address",
          "name": "_tokenAddress",
          "type": "address"
        }
      ],
      "stateMutability": "nonpayable",
      "type": "constructor"
    },
    {
      "anonymous": false,
      "inputs": [
        {
          "indexed": false,
          "internalType": "uint256",
          "name": "_id",
          "type": "uint256"
        },
        {
          "indexed": false,
          "internalType": "uint256",
          "name": "_value",
          "type": "uint256"
        }
      ],
      "name": "logshh",
      "type": "event"
    },
    {
      "inputs": [],
      "name": "UsdtInterface",
      "outputs": [
        {
          "internalType": "contract IERC20",
          "name": "",
          "type": "address"
        }
      ],
      "stateMutability": "view",
      "type": "function"
    },
    {
      "inputs": [],
      "name": "allWinner",
      "outputs": [
        {
          "internalType": "address[]",
          "name": "",
          "type": "address[]"
        }
      ],
      "stateMutability": "view",
      "type": "function"
    },
    {
      "inputs": [],
      "name": "allWinner1",
      "outputs": [
        {
          "internalType": "address[]",
          "name": "",
          "type": "address[]"
        }
      ],
      "stateMutability": "view",
      "type": "function"
    },
    {
      "inputs": [],
      "name": "allWinner2",
      "outputs": [
        {
          "internalType": "address[]",
          "name": "",
          "type": "address[]"
        }
      ],
      "stateMutability": "view",
      "type": "function"
    },
    {
      "inputs": [],
      "name": "announceLottery",
      "outputs": [],
      "stateMutability": "nonpayable",
      "type": "function"
    },
    {
      "inputs": [],
      "name": "announceLottery1",
      "outputs": [],
      "stateMutability": "nonpayable",
      "type": "function"
    },
    {
      "inputs": [],
      "name": "announceLottery2",
      "outputs": [],
      "stateMutability": "nonpayable",
      "type": "function"
    },
    {
      "inputs": [],
      "name": "getLottery1Length",
      "outputs": [
        {
          "internalType": "uint256",
          "name": "",
          "type": "uint256"
        }
      ],
      "stateMutability": "view",
      "type": "function"
    },
    {
      "inputs": [],
      "name": "getLottery2Length",
      "outputs": [
        {
          "internalType": "uint256",
          "name": "",
          "type": "uint256"
        }
      ],
      "stateMutability": "view",
      "type": "function"
    },
    {
      "inputs": [],
      "name": "getLotteryLength",
      "outputs": [
        {
          "internalType": "uint256",
          "name": "",
          "type": "uint256"
        }
      ],
      "stateMutability": "view",
      "type": "function"
    },
    {
      "inputs": [
        {
          "internalType": "address",
          "name": "ad",
          "type": "address"
        }
      ],
      "name": "howMany",
      "outputs": [
        {
          "internalType": "uint256",
          "name": "",
          "type": "uint256"
        },
        {
          "internalType": "uint256",
          "name": "",
          "type": "uint256"
        },
        {
          "internalType": "uint256",
          "name": "",
          "type": "uint256"
        }
      ],
      "stateMutability": "view",
      "type": "function"
    },
    {
      "inputs": [],
      "name": "initization",
      "outputs": [
        {
          "internalType": "bool",
          "name": "",
          "type": "bool"
        }
      ],
      "stateMutability": "view",
      "type": "function"
    },
    {
      "inputs": [
        {
          "internalType": "uint256",
          "name": "_amount",
          "type": "uint256"
        }
      ],
      "name": "joinLottery",
      "outputs": [],
      "stateMutability": "nonpayable",
      "type": "function"
    },
    {
      "inputs": [
        {
          "internalType": "uint256",
          "name": "_amount",
          "type": "uint256"
        }
      ],
      "name": "joinLottery1",
      "outputs": [],
      "stateMutability": "nonpayable",
      "type": "function"
    },
    {
      "inputs": [
        {
          "internalType": "uint256",
          "name": "_amount",
          "type": "uint256"
        }
      ],
      "name": "joinLottery2",
      "outputs": [],
      "stateMutability": "nonpayable",
      "type": "function"
    },
    {
      "inputs": [],
      "name": "lotteryBalance",
      "outputs": [
        {
          "internalType": "uint256",
          "name": "",
          "type": "uint256"
        }
      ],
      "stateMutability": "view",
      "type": "function"
    },
    {
      "inputs": [
        {
          "internalType": "uint256",
          "name": "_maxNumbers",
          "type": "uint256"
        }
      ],
      "name": "setMaximmNumbers",
      "outputs": [],
      "stateMutability": "nonpayable",
      "type": "function"
    },
    {
      "inputs": [
        {
          "internalType": "uint256",
          "name": "_maxNumbers",
          "type": "uint256"
        }
      ],
      "name": "setMaximmNumbers1",
      "outputs": [],
      "stateMutability": "nonpayable",
      "type": "function"
    },
    {
      "inputs": [
        {
          "internalType": "uint256",
          "name": "_maxNumbers",
          "type": "uint256"
        }
      ],
      "name": "setMaximmNumbers2",
      "outputs": [],
      "stateMutability": "nonpayable",
      "type": "function"
    },
    {
      "inputs": [
        {
          "internalType": "uint256",
          "name": "_valueInEther",
          "type": "uint256"
        }
      ],
      "name": "setTicketPrice",
      "outputs": [],
      "stateMutability": "nonpayable",
      "type": "function"
    },
    {
      "inputs": [
        {
          "internalType": "uint256",
          "name": "_valueInEther",
          "type": "uint256"
        }
      ],
      "name": "setTicketPrice1",
      "outputs": [],
      "stateMutability": "nonpayable",
      "type": "function"
    },
    {
      "inputs": [
        {
          "internalType": "uint256",
          "name": "_valueInEther",
          "type": "uint256"
        }
      ],
      "name": "setTicketPrice2",
      "outputs": [],
      "stateMutability": "nonpayable",
      "type": "function"
    },
    {
      "inputs": [],
      "name": "startLottery",
      "outputs": [],
      "stateMutability": "nonpayable",
      "type": "function"
    },
    {
      "inputs": [],
      "name": "tokenAdress",
      "outputs": [
        {
          "internalType": "address",
          "name": "",
          "type": "address"
        }
      ],
      "stateMutability": "view",
      "type": "function"
    },
    {
      "inputs": [],
      "name": "viewTicket",
      "outputs": [
        {
          "internalType": "uint256",
          "name": "",
          "type": "uint256"
        }
      ],
      "stateMutability": "view",
      "type": "function"
    },
    {
      "inputs": [],
      "name": "viewTicket1",
      "outputs": [
        {
          "internalType": "uint256",
          "name": "",
          "type": "uint256"
        }
      ],
      "stateMutability": "view",
      "type": "function"
    },
    {
      "inputs": [],
      "name": "viewTicket2",
      "outputs": [
        {
          "internalType": "uint256",
          "name": "",
          "type": "uint256"
        }
      ],
      "stateMutability": "view",
      "type": "function"
    },
    {
      "inputs": [],
      "name": "viewTicketPrice",
      "outputs": [
        {
          "internalType": "uint256",
          "name": "",
          "type": "uint256"
        }
      ],
      "stateMutability": "view",
      "type": "function"
    },
    {
      "inputs": [],
      "name": "viewTicketPrice1",
      "outputs": [
        {
          "internalType": "uint256",
          "name": "",
          "type": "uint256"
        }
      ],
      "stateMutability": "view",
      "type": "function"
    },
    {
      "inputs": [],
      "name": "viewTicketPrice2",
      "outputs": [
        {
          "internalType": "uint256",
          "name": "",
          "type": "uint256"
        }
      ],
      "stateMutability": "view",
      "type": "function"
    },
    {
      "inputs": [
        {
          "internalType": "uint256",
          "name": "",
          "type": "uint256"
        }
      ],
      "name": "winnerLottery",
      "outputs": [
        {
          "internalType": "address",
          "name": "",
          "type": "address"
        }
      ],
      "stateMutability": "view",
      "type": "function"
    },
    {
      "inputs": [
        {
          "internalType": "uint256",
          "name": "",
          "type": "uint256"
        }
      ],
      "name": "winnerLottery1",
      "outputs": [
        {
          "internalType": "address",
          "name": "",
          "type": "address"
        }
      ],
      "stateMutability": "view",
      "type": "function"
    },
    {
      "inputs": [
        {
          "internalType": "uint256",
          "name": "",
          "type": "uint256"
        }
      ],
      "name": "winnerLottery2",
      "outputs": [
        {
          "internalType": "address",
          "name": "",
          "type": "address"
        }
      ],
      "stateMutability": "view",
      "type": "function"
    }
  ],
  "bytecode": "0x6080604052600680547373ea2098ad84bb87ac5ffbf7c86929c09fa868786001600160a01b031991821681179092556007805490911690911790556010805460ff1916905534801561005057600080fd5b50604051611fc4380380611fc483398101604081905261006f916100e0565b600580546001600160a01b031990811633178255600a600181905566b1a2bc2ec500006003556008929092556702c68af0bb1400009091556004600c556706f05b59d3b20000600e55601480546001600160a01b03939093169282168317905560158054909116909117905561010e565b6000602082840312156100f1578081fd5b81516001600160a01b0381168114610107578182fd5b9392505050565b611ea78061011d6000396000f3fe608060405234801561001057600080fd5b50600436106101fb5760003560e01c8063890d542f1161011a578063be69d7ff116100ad578063e437239f1161007c578063e437239f146103ce578063ea6b0480146103e1578063f0c30e95146103e9578063f19e8d86146103fc578063f77f15b51461040f57600080fd5b8063be69d7ff146103a3578063ce5f6b9f146103ab578063d521cf2a146103be578063db486929146103c657600080fd5b8063a308761a116100e9578063a308761a14610383578063a46eeb751461038b578063a7e9f0d114610393578063b22886491461039b57600080fd5b8063890d542f1461034d57806397c9c5a6146103605780639ec8070214610373578063a0a7bda81461037b57600080fd5b806356e0bd36116101925780636716f265116101615780636716f2651461030257806367b447de1461031f5780637eee9fc1146103325780638644024b1461034557600080fd5b806356e0bd361461028f578063576aaa2b146102ba578063602977ad146102cc578063636ad6a6146102fa57600080fd5b806317c6332c116101ce57806317c6332c146102435780633631ef4a146102565780633fc7adb6146102695780634ba351251461027c57600080fd5b8063013fc0ab14610200578063130024371461020a5780631598165014610228578063160344e21461023b575b600080fd5b610208610417565b005b610212610454565b60405161021f9190611c2f565b60405180910390f35b610208610236366004611bff565b610607565b610208610636565b610208610251366004611bff565b61066f565b610208610264366004611bff565b61069e565b610208610277366004611bff565b61086a565b61020861028a366004611bff565b610899565b6102a261029d366004611bff565b6108c8565b6040516001600160a01b03909116815260200161021f565b6004545b60405190815260200161021f565b6102df6102da366004611bb8565b6108f2565b6040805193845260208401929092529082015260600161021f565b6003546102be565b60105461030f9060ff1681565b604051901515815260200161021f565b6015546102a2906001600160a01b031681565b610208610340366004611bff565b610a84565b600e546102be565b6102a261035b366004611bff565b610c3d565b6014546102a2906001600160a01b031681565b6001546102be565b600f546102be565b6008546102be565b600b546102be565b610212610c4d565b6102be610def565b610208610e70565b6102086103b9366004611bff565b610ea2565b610212611098565b600c546102be565b6102086103dc366004611bff565b61123a565b600a546102be565b6102086103f7366004611bff565b611269565b6102a261040a366004611bff565b611298565b6102086112a8565b6005546001600160a01b0316331461044a5760405162461bcd60e51b815260040161044190611c7c565b60405180910390fd5b6104526112da565b565b6040805160118082526102408201909252606091600091906020820161022080368337019050506013548151919250906000600a83111561053f57825b61049c600a85611de8565b81111561053957826104ad81611e16565b935050601381815481106104d157634e487b7160e01b600052603260045260246000fd5b9060005260206000200160009054906101000a90046001600160a01b031685848151811061050f57634e487b7160e01b600052603260045260246000fd5b6001600160a01b03909216602092830291909101909101528061053181611dff565b915050610491565b506105fe565b825b80156105fc578261055181611e16565b9350600090506013610564600184611de8565b8154811061058257634e487b7160e01b600052603260045260246000fd5b9060005260206000200160009054906101000a90046001600160a01b03169050808684815181106105c357634e487b7160e01b600052603260045260246000fd5b6001600160a01b0390921660209283029190910190910152826105e581611e16565b9350505080806105f490611dff565b915050610541565b505b50919392505050565b6005546001600160a01b031633146106315760405162461bcd60e51b815260040161044190611c7c565b600355565b6005546001600160a01b031633146106605760405162461bcd60e51b815260040161044190611c7c565b6010805460ff19166001179055565b6005546001600160a01b031633146106995760405162461bcd60e51b815260040161044190611c7c565b600c55565b6005546001600160a01b03163314156106c95760405162461bcd60e51b815260040161044190611cee565b60005460ff16156106ec5760405162461bcd60e51b815260040161044190611cc6565b6000805460ff1916600117905560105460ff1661071b5760405162461bcd60e51b815260040161044190611d15565b600e54811461073c5760405162461bcd60e51b815260040161044190611ca4565b6015546040516323b872dd60e01b8152336004820152306024820152604481018390526000916001600160a01b0316906323b872dd90606401602060405180830381600087803b15801561078f57600080fd5b505af11580156107a3573d6000803e3d6000fd5b505050506040513d601f19601f820116820180604052508101906107c79190611bdf565b9050801561085c57600c54600d54101561084857600f805460018101825560009182527f8d1108e10bcb7c27dddfc02ed9d693a074039d026cf4ea4240b40f7d581ac8020180546001600160a01b03191633179055600d80549161082a83611e16565b9190505550600c54600d5414156108435761084361159e565b61085c565b600c54600d54141561085c5761085c61159e565b50506000805460ff19169055565b6005546001600160a01b031633146108945760405162461bcd60e51b815260040161044190611c7c565b600155565b6005546001600160a01b031633146108c35760405162461bcd60e51b815260040161044190611c7c565b600855565b601281815481106108d857600080fd5b6000918252602090912001546001600160a01b0316905081565b60045460009081908190819081908190801561097b5760005b8181101561097957886001600160a01b03166004828154811061093e57634e487b7160e01b600052603260045260246000fd5b6000918252602090912001546001600160a01b03161415610967578461096381611e16565b9550505b8061097181611e16565b91505061090b565b505b600b5480156109f75760005b818110156109f557896001600160a01b0316600b82815481106109ba57634e487b7160e01b600052603260045260246000fd5b6000918252602090912001546001600160a01b031614156109e357846109df81611e16565b9550505b806109ed81611e16565b915050610987565b505b600f548015610a735760005b81811015610a71578a6001600160a01b0316600f8281548110610a3657634e487b7160e01b600052603260045260246000fd5b6000918252602090912001546001600160a01b03161415610a5f5784610a5b81611e16565b9550505b80610a6981611e16565b915050610a03565b505b509398929750909550909350505050565b6005546001600160a01b0316331415610aaf5760405162461bcd60e51b815260040161044190611cee565b60005460ff1615610ad25760405162461bcd60e51b815260040161044190611cc6565b6000805460ff1916600117905560105460ff16610b015760405162461bcd60e51b815260040161044190611d15565b6003548114610b225760405162461bcd60e51b815260040161044190611ca4565b6015546040516323b872dd60e01b8152336004820152306024820152604481018390526000916001600160a01b0316906323b872dd90606401602060405180830381600087803b158015610b7557600080fd5b505af1158015610b89573d6000803e3d6000fd5b505050506040513d601f19601f82011682018060405250810190610bad9190611bdf565b9050801561085c576001546002541015610c29576004805460018101825560009182527f8a35acfbc15ff81a39ae7d344fd709f28e8600b4aa8c65c6b64bfe7fe36bd19b0180546001600160a01b031916331790556002805491610c1083611e16565b919050555060015460025414156108435761084361185b565b600154600254141561085c5761085c61185b565b601381815481106108d857600080fd5b6040805160118082526102408201909252606091600091906020820161022080368337019050506011548151919250906000600a831115610d3257825b610c95600a85611de8565b8111156105395782610ca681611e16565b93505060118181548110610cca57634e487b7160e01b600052603260045260246000fd5b9060005260206000200160009054906101000a90046001600160a01b0316858481518110610d0857634e487b7160e01b600052603260045260246000fd5b6001600160a01b039092166020928302919091019091015280610d2a81611dff565b915050610c8a565b825b80156105fc5782610d4481611e16565b9350600090506011610d57600184611de8565b81548110610d7557634e487b7160e01b600052603260045260246000fd5b9060005260206000200160009054906101000a90046001600160a01b0316905080868481518110610db657634e487b7160e01b600052603260045260246000fd5b6001600160a01b039092166020928302919091019091015282610dd881611e16565b935050508080610de790611dff565b915050610d34565b6015546040516370a0823160e01b81523060048201526000916001600160a01b0316906370a082319060240160206040518083038186803b158015610e3357600080fd5b505afa158015610e47573d6000803e3d6000fd5b505050506040513d601f19601f82011682018060405250810190610e6b9190611c17565b905090565b6005546001600160a01b03163314610e9a5760405162461bcd60e51b815260040161044190611c7c565b61045261159e565b6005546001600160a01b0316331415610ecd5760405162461bcd60e51b815260040161044190611cee565b60005460ff1615610ef05760405162461bcd60e51b815260040161044190611cc6565b6000805460ff1916600117905560105460ff16610f1f5760405162461bcd60e51b815260040161044190611d15565b600a546040805183815260208101929092527fa3de883741aefa0083d54de95483572ad5eaa074b33a0ae8dc98725d52cf8143910160405180910390a1600a548114610f7d5760405162461bcd60e51b815260040161044190611ca4565b6015546040516323b872dd60e01b8152336004820152306024820152604481018390526000916001600160a01b0316906323b872dd90606401602060405180830381600087803b158015610fd057600080fd5b505af1158015610fe4573d6000803e3d6000fd5b505050506040513d601f19601f820116820180604052508101906110089190611bdf565b9050801561085c57600854600954101561108457600b805460018101825560009182527f0175b7a638427703f0dbe7bb9bbf987a2551717b34e79f33b5b1008d1fa01db90180546001600160a01b03191633179055600980549161106b83611e16565b91905055506008546009541415610843576108436112da565b600854600954141561085c5761085c6112da565b6040805160118082526102408201909252606091600091906020820161022080368337019050506012548151919250906000600a83111561117d57825b6110e0600a85611de8565b81111561053957826110f181611e16565b9350506012818154811061111557634e487b7160e01b600052603260045260246000fd5b9060005260206000200160009054906101000a90046001600160a01b031685848151811061115357634e487b7160e01b600052603260045260246000fd5b6001600160a01b03909216602092830291909101909101528061117581611dff565b9150506110d5565b825b80156105fc578261118f81611e16565b93506000905060126111a2600184611de8565b815481106111c057634e487b7160e01b600052603260045260246000fd5b9060005260206000200160009054906101000a90046001600160a01b031690508086848151811061120157634e487b7160e01b600052603260045260246000fd5b6001600160a01b03909216602092830291909101909101528261122381611e16565b93505050808061123290611dff565b91505061117f565b6005546001600160a01b031633146112645760405162461bcd60e51b815260040161044190611c7c565b600a55565b6005546001600160a01b031633146112935760405162461bcd60e51b815260040161044190611c7c565b600e55565b601181815481106108d857600080fd5b6005546001600160a01b031633146112d25760405162461bcd60e51b815260040161044190611c7c565b61045261185b565b600b546000906112e8611b1b565b6112f29190611e31565b600b54600a549192506000916113089190611dc9565b9050600061132161131a83601a611b53565b6064611b66565b9050600061133361131a846004611b53565b60155460065460405163a9059cbb60e01b81526001600160a01b03918216600482015260248101869052929350169063a9059cbb90604401602060405180830381600087803b15801561138557600080fd5b505af1158015611399573d6000803e3d6000fd5b505050506040513d601f19601f820116820180604052508101906113bd9190611bdf565b5060006113ca8484611b72565b90506113d68282611de8565b60155460075460405163a9059cbb60e01b81526001600160a01b03918216600482015260248101869052929350169063a9059cbb90604401602060405180830381600087803b15801561142857600080fd5b505af115801561143c573d6000803e3d6000fd5b505050506040513d601f19601f820116820180604052508101906114609190611bdf565b50601554600b80546001600160a01b039092169163a9059cbb91908890811061149957634e487b7160e01b600052603260045260246000fd5b60009182526020909120015460405160e083901b6001600160e01b03191681526001600160a01b03909116600482015260248101849052604401602060405180830381600087803b1580156114ed57600080fd5b505af1158015611501573d6000803e3d6000fd5b505050506040513d601f19601f820116820180604052508101906115259190611bdf565b506012600b868154811061154957634e487b7160e01b600052603260045260246000fd5b6000918252602080832090910154835460018101855593835290822090920180546001600160a01b0319166001600160a01b039093169290921790915561159290600b90611b7e565b50506000600955505050565b600f546000906115ac611b1b565b6115b69190611e31565b600f54600e549192506000916115cc9190611dc9565b905060006115de61131a83601a611b53565b905060006115f061131a846004611b53565b60155460065460405163a9059cbb60e01b81526001600160a01b03918216600482015260248101869052929350169063a9059cbb90604401602060405180830381600087803b15801561164257600080fd5b505af1158015611656573d6000803e3d6000fd5b505050506040513d601f19601f8201168201806040525081019061167a9190611bdf565b5060006116878484611b72565b90506116938282611de8565b60155460075460405163a9059cbb60e01b81526001600160a01b03918216600482015260248101869052929350169063a9059cbb90604401602060405180830381600087803b1580156116e557600080fd5b505af11580156116f9573d6000803e3d6000fd5b505050506040513d601f19601f8201168201806040525081019061171d9190611bdf565b50601554600f80546001600160a01b039092169163a9059cbb91908890811061175657634e487b7160e01b600052603260045260246000fd5b60009182526020909120015460405160e083901b6001600160e01b03191681526001600160a01b03909116600482015260248101849052604401602060405180830381600087803b1580156117aa57600080fd5b505af11580156117be573d6000803e3d6000fd5b505050506040513d601f19601f820116820180604052508101906117e29190611bdf565b506013600f868154811061180657634e487b7160e01b600052603260045260246000fd5b6000918252602080832090910154835460018101855593835290822090920180546001600160a01b0319166001600160a01b039093169290921790915561184f90600f90611b7e565b50506000600d55505050565b600454600090611869611b1b565b6118739190611e31565b6004546003549192509060009061188b908390611dc9565b9050600061189d61131a83601a611b53565b905060006118af61131a846004611b53565b60155460065460405163a9059cbb60e01b81526001600160a01b03918216600482015260248101869052929350169063a9059cbb90604401602060405180830381600087803b15801561190157600080fd5b505af1158015611915573d6000803e3d6000fd5b505050506040513d601f19601f820116820180604052508101906119399190611bdf565b5060006119468484611b72565b90506119528282611de8565b60155460075460405163a9059cbb60e01b81526001600160a01b03918216600482015260248101869052929350169063a9059cbb90604401602060405180830381600087803b1580156119a457600080fd5b505af11580156119b8573d6000803e3d6000fd5b505050506040513d601f19601f820116820180604052508101906119dc9190611bdf565b50601554600480546001600160a01b039092169163a9059cbb919089908110611a1557634e487b7160e01b600052603260045260246000fd5b60009182526020909120015460405160e083901b6001600160e01b03191681526001600160a01b03909116600482015260248101849052604401602060405180830381600087803b158015611a6957600080fd5b505af1158015611a7d573d6000803e3d6000fd5b505050506040513d601f19601f82011682018060405250810190611aa19190611bdf565b50601160048781548110611ac557634e487b7160e01b600052603260045260246000fd5b6000918252602080832090910154835460018101855593835290822090920180546001600160a01b0319166001600160a01b0390931692909217909155611b0e90600490611b7e565b5050600060025550505050565b60004442600443604051602001611b359493929190611d4c565b6040516020818303038152906040528051906020012060001c905090565b6000611b5f8284611dc9565b9392505050565b6000611b5f8284611db5565b6000611b5f8284611de8565b5080546000825590600052602060002090810190611b9c9190611b9f565b50565b5b80821115611bb45760008155600101611ba0565b5090565b600060208284031215611bc9578081fd5b81356001600160a01b0381168114611b5f578182fd5b600060208284031215611bf0578081fd5b81518015158114611b5f578182fd5b600060208284031215611c10578081fd5b5035919050565b600060208284031215611c28578081fd5b5051919050565b6020808252825182820181905260009190848201906040850190845b81811015611c705783516001600160a01b031683529284019291840191600101611c4b565b50909695505050505050565b6020808252600e908201526d4163636573732064656e6965642160901b604082015260600190565b6020808252600890820152674e6f742053616d6560c01b604082015260600190565b6020808252600e908201526d4e6f2072652d656e7472616e637960901b604082015260600190565b6020808252600d908201526c1058d8d95cdcc819195b9a5959609a1b604082015260600190565b6020808252601a908201527f4c6f7474657279206973206e6f74207374617274656420796574000000000000604082015260600190565b600060808201868352602086818501526080604085015281865480845260a0860191508785528285209350845b81811015611d9e5784546001600160a01b031683526001948501949284019201611d79565b505080935050505082606083015295945050505050565b600082611dc457611dc4611e5b565b500490565b6000816000190483118215151615611de357611de3611e45565b500290565b600082821015611dfa57611dfa611e45565b500390565b600081611e0e57611e0e611e45565b506000190190565b6000600019821415611e2a57611e2a611e45565b5060010190565b600082611e4057611e40611e5b565b500690565b634e487b7160e01b600052601160045260246000fd5b634e487b7160e01b600052601260045260246000fdfea264697066735822122001eda753464f84b2adb5779355f375b51cba10948603ad13709684434cc11d3664736f6c63430008040033",
  "linkReferences": {},
  "deployedLinkReferences": {}
}