{
  "_format": "hh-sol-artifact-1",
  "contractName": "ERC20",
  "sourceName": "contracts/ERC20.sol",
  "abi": [
    {
      "inputs": [
        {
          "internalType": "string",
          "name": "tokenName",
          "type": "string"
        },
        {
          "internalType": "string",
          "name": "tokenSymbol",
          "type": "string"
        }
      ],
      "stateMutability": "nonpayable",
      "type": "constructor"
    },
    {
      "anonymous": false,
      "inputs": [
        {
          "indexed": true,
          "internalType": "address",
          "name": "owner",
          "type": "address"
        },
        {
          "indexed": true,
          "internalType": "address",
          "name": "spender",
          "type": "address"
        },
        {
          "indexed": false,
          "internalType": "uint256",
          "name": "value",
          "type": "uint256"
        }
      ],
      "name": "Approval",
      "type": "event"
    },
    {
      "anonymous": false,
      "inputs": [
        {
          "indexed": true,
          "internalType": "address",
          "name": "previousOwner",
          "type": "address"
        },
        {
          "indexed": true,
          "internalType": "address",
          "name": "newOwner",
          "type": "address"
        }
      ],
      "name": "OwnershipTransferred",
      "type": "event"
    },
    {
      "anonymous": false,
      "inputs": [
        {
          "indexed": true,
          "internalType": "address",
          "name": "from",
          "type": "address"
        },
        {
          "indexed": true,
          "internalType": "address",
          "name": "to",
          "type": "address"
        },
        {
          "indexed": false,
          "internalType": "uint256",
          "name": "value",
          "type": "uint256"
        }
      ],
      "name": "Transfer",
      "type": "event"
    },
    {
      "inputs": [
        {
          "internalType": "address",
          "name": "owner",
          "type": "address"
        },
        {
          "internalType": "address",
          "name": "spender",
          "type": "address"
        }
      ],
      "name": "allowance",
      "outputs": [
        {
          "internalType": "uint256",
          "name": "",
          "type": "uint256"
        }
      ],
      "stateMutability": "view",
      "type": "function"
    },
    {
      "inputs": [
        {
          "internalType": "address",
          "name": "spender",
          "type": "address"
        },
        {
          "internalType": "uint256",
          "name": "amount",
          "type": "uint256"
        }
      ],
      "name": "approve",
      "outputs": [
        {
          "internalType": "bool",
          "name": "",
          "type": "bool"
        }
      ],
      "stateMutability": "nonpayable",
      "type": "function"
    },
    {
      "inputs": [
        {
          "internalType": "address",
          "name": "account",
          "type": "address"
        }
      ],
      "name": "balanceOf",
      "outputs": [
        {
          "internalType": "uint256",
          "name": "",
          "type": "uint256"
        }
      ],
      "stateMutability": "view",
      "type": "function"
    },
    {
      "inputs": [
        {
          "internalType": "uint256",
          "name": "amount",
          "type": "uint256"
        }
      ],
      "name": "burn",
      "outputs": [],
      "stateMutability": "nonpayable",
      "type": "function"
    },
    {
      "inputs": [],
      "name": "decimals",
      "outputs": [
        {
          "internalType": "uint8",
          "name": "",
          "type": "uint8"
        }
      ],
      "stateMutability": "view",
      "type": "function"
    },
    {
      "inputs": [
        {
          "internalType": "address",
          "name": "spender",
          "type": "address"
        },
        {
          "internalType": "uint256",
          "name": "subtractedValue",
          "type": "uint256"
        }
      ],
      "name": "decreaseAllowance",
      "outputs": [
        {
          "internalType": "bool",
          "name": "",
          "type": "bool"
        }
      ],
      "stateMutability": "nonpayable",
      "type": "function"
    },
    {
      "inputs": [
        {
          "internalType": "address",
          "name": "account",
          "type": "address"
        }
      ],
      "name": "getAirdrop",
      "outputs": [
        {
          "internalType": "uint256",
          "name": "",
          "type": "uint256"
        }
      ],
      "stateMutability": "view",
      "type": "function"
    },
    {
      "inputs": [],
      "name": "getOwner",
      "outputs": [
        {
          "internalType": "address",
          "name": "",
          "type": "address"
        }
      ],
      "stateMutability": "view",
      "type": "function"
    },
    {
      "inputs": [
        {
          "internalType": "address",
          "name": "spender",
          "type": "address"
        },
        {
          "internalType": "uint256",
          "name": "addedValue",
          "type": "uint256"
        }
      ],
      "name": "increaseAllowance",
      "outputs": [
        {
          "internalType": "bool",
          "name": "",
          "type": "bool"
        }
      ],
      "stateMutability": "nonpayable",
      "type": "function"
    },
    {
      "inputs": [],
      "name": "name",
      "outputs": [
        {
          "internalType": "string",
          "name": "",
          "type": "string"
        }
      ],
      "stateMutability": "view",
      "type": "function"
    },
    {
      "inputs": [],
      "name": "owner",
      "outputs": [
        {
          "internalType": "address",
          "name": "",
          "type": "address"
        }
      ],
      "stateMutability": "view",
      "type": "function"
    },
    {
      "inputs": [],
      "name": "renounceOwnership",
      "outputs": [],
      "stateMutability": "nonpayable",
      "type": "function"
    },
    {
      "inputs": [
        {
          "internalType": "address",
          "name": "account",
          "type": "address"
        },
        {
          "internalType": "uint256",
          "name": "amount",
          "type": "uint256"
        }
      ],
      "name": "setAirdrop",
      "outputs": [
        {
          "internalType": "bool",
          "name": "",
          "type": "bool"
        }
      ],
      "stateMutability": "nonpayable",
      "type": "function"
    },
    {
      "inputs": [],
      "name": "symbol",
      "outputs": [
        {
          "internalType": "string",
          "name": "",
          "type": "string"
        }
      ],
      "stateMutability": "view",
      "type": "function"
    },
    {
      "inputs": [],
      "name": "totalSupply",
      "outputs": [
        {
          "internalType": "uint256",
          "name": "",
          "type": "uint256"
        }
      ],
      "stateMutability": "view",
      "type": "function"
    },
    {
      "inputs": [
        {
          "internalType": "address",
          "name": "recipient",
          "type": "address"
        },
        {
          "internalType": "uint256",
          "name": "amount",
          "type": "uint256"
        }
      ],
      "name": "transfer",
      "outputs": [
        {
          "internalType": "bool",
          "name": "",
          "type": "bool"
        }
      ],
      "stateMutability": "nonpayable",
      "type": "function"
    },
    {
      "inputs": [
        {
          "internalType": "address",
          "name": "sender",
          "type": "address"
        },
        {
          "internalType": "address",
          "name": "recipient",
          "type": "address"
        },
        {
          "internalType": "uint256",
          "name": "amount",
          "type": "uint256"
        }
      ],
      "name": "transferFrom",
      "outputs": [
        {
          "internalType": "bool",
          "name": "",
          "type": "bool"
        }
      ],
      "stateMutability": "nonpayable",
      "type": "function"
    },
    {
      "inputs": [
        {
          "internalType": "address",
          "name": "newOwner",
          "type": "address"
        }
      ],
      "name": "transferOwnership",
      "outputs": [],
      "stateMutability": "nonpayable",
      "type": "function"
    }
  ],
  "bytecode": "0x60806040526c0c9f2c9cd04674edea400000006004556005805460ff191660121790553480156200002f57600080fd5b506040516200118338038062001183833981016040819052620000529162000233565b600080546001600160a01b031916339081178255604051909182917f8be0079c531659141344cd1fd0a4f28419497f9722a3daafe3b4186f6b6457e0908290a3508151620000a8906007906020850190620000da565b508051620000be906006906020840190620000da565b50506004543360009081526001602052604090205550620002ed565b828054620000e8906200029a565b90600052602060002090601f0160209004810192826200010c576000855562000157565b82601f106200012757805160ff191683800117855562000157565b8280016001018555821562000157579182015b82811115620001575782518255916020019190600101906200013a565b506200016592915062000169565b5090565b5b808211156200016557600081556001016200016a565b600082601f83011262000191578081fd5b81516001600160401b0380821115620001ae57620001ae620002d7565b604051601f8301601f19908116603f01168101908282118183101715620001d957620001d9620002d7565b81604052838152602092508683858801011115620001f5578485fd5b8491505b83821015620002185785820183015181830184015290820190620001f9565b838211156200022957848385830101525b9695505050505050565b6000806040838503121562000246578182fd5b82516001600160401b03808211156200025d578384fd5b6200026b8683870162000180565b9350602085015191508082111562000281578283fd5b50620002908582860162000180565b9150509250929050565b600181811c90821680620002af57607f821691505b60208210811415620002d157634e487b7160e01b600052602260045260246000fd5b50919050565b634e487b7160e01b600052604160045260246000fd5b610e8680620002fd6000396000f3fe608060405234801561001057600080fd5b50600436106101165760003560e01c806370a08231116100a257806395d89b411161007157806395d89b4114610261578063a457c2d714610269578063a9059cbb1461027c578063dd62ed3e1461028f578063f2fde38b146102c857600080fd5b806370a08231146101fa578063715018a614610223578063893d20e81461022b5780638da5cb5b1461025057600080fd5b80632206035f116100e95780632206035f1461019757806323b872dd146101aa578063313ce567146101bd57806339509351146101d257806342966c68146101e557600080fd5b8063069f5bdd1461011b57806306fdde0314610157578063095ea7b31461016c57806318160ddd1461018f575b600080fd5b610144610129366004610c20565b6001600160a01b031660009081526003602052604090205490565b6040519081526020015b60405180910390f35b61015f6102db565b60405161014e9190610ce8565b61017f61017a366004610ca7565b61036d565b604051901515815260200161014e565b600454610144565b61017f6101a5366004610ca7565b610383565b61017f6101b8366004610c6c565b610427565b60055460405160ff909116815260200161014e565b61017f6101e0366004610ca7565b610490565b6101f86101f3366004610cd0565b6104c6565b005b610144610208366004610c20565b6001600160a01b031660009081526001602052604090205490565b6101f86104d3565b6000546001600160a01b03165b6040516001600160a01b03909116815260200161014e565b6000546001600160a01b0316610238565b61015f61057c565b61017f610277366004610ca7565b61058b565b61017f61028a366004610ca7565b6105da565b61014461029d366004610c3a565b6001600160a01b03918216600090815260026020908152604080832093909416825291909152205490565b6101f86102d6366004610c20565b6105e7565b6060600780546102ea90610d6a565b80601f016020809104026020016040519081016040528092919081815260200182805461031690610d6a565b80156103635780601f1061033857610100808354040283529160200191610363565b820191906000526020600020905b81548152906001019060200180831161034657829003601f168201915b5050505050905090565b600061037a33848461064a565b50600192915050565b6001600160a01b038216600090815260036020526040812054156103a657600080fd5b6001600160a01b038316600090815260036020908152604080832085905560019091529020546103d6908361076f565b6001600160a01b0384811660009081526001602052604081208390555416906103ff90846107d5565b6001600160a01b03909116600090815260016020819052604090912091909155905092915050565b6000610434848484610817565b610486843361048185604051806060016040528060288152602001610dbc602891396001600160a01b038a16600090815260026020908152604080832033845290915290205491906109ff565b61064a565b5060019392505050565b3360008181526002602090815260408083206001600160a01b0387168452909152812054909161037a918590610481908661076f565b6104d03382610a39565b50565b6000546001600160a01b031633146105325760405162461bcd60e51b815260206004820181905260248201527f4f776e61626c653a2063616c6c6572206973206e6f7420746865206f776e657260448201526064015b60405180910390fd5b600080546040516001600160a01b03909116907f8be0079c531659141344cd1fd0a4f28419497f9722a3daafe3b4186f6b6457e0908390a3600080546001600160a01b0319169055565b6060600680546102ea90610d6a565b600061037a338461048185604051806060016040528060258152602001610e0a602591393360009081526002602090815260408083206001600160a01b038d16845290915290205491906109ff565b600061037a338484610817565b6000546001600160a01b031633146106415760405162461bcd60e51b815260206004820181905260248201527f4f776e61626c653a2063616c6c6572206973206e6f7420746865206f776e65726044820152606401610529565b6104d081610b44565b6001600160a01b0383166106ac5760405162461bcd60e51b8152602060048201526024808201527f42455032303a20617070726f76652066726f6d20746865207a65726f206164646044820152637265737360e01b6064820152608401610529565b6001600160a01b03821661070d5760405162461bcd60e51b815260206004820152602260248201527f42455032303a20617070726f766520746f20746865207a65726f206164647265604482015261737360f01b6064820152608401610529565b6001600160a01b0383811660008181526002602090815260408083209487168084529482529182902085905590518481527f8c5be1e5ebec7d5bd14f71427d1e84f3dd0314c0f7b2291e5b200ac8c7c3b92591015b60405180910390a3505050565b60008061077c8385610d3b565b9050838110156107ce5760405162461bcd60e51b815260206004820152601b60248201527f536166654d6174683a206164646974696f6e206f766572666c6f7700000000006044820152606401610529565b9392505050565b60006107ce83836040518060400160405280601e81526020017f536166654d6174683a207375627472616374696f6e206f766572666c6f7700008152506109ff565b6001600160a01b03831661087b5760405162461bcd60e51b815260206004820152602560248201527f42455032303a207472616e736665722066726f6d20746865207a65726f206164604482015264647265737360d81b6064820152608401610529565b6001600160a01b0382166108dd5760405162461bcd60e51b815260206004820152602360248201527f42455032303a207472616e7366657220746f20746865207a65726f206164647260448201526265737360e81b6064820152608401610529565b336000908152600360205260409020541561093f57336000908152600360209081526040808320546001600160a01b0387168452600190925282205490919061093290839061092c90866107d5565b906107d5565b101561093d57600080fd5b505b61097c81604051806060016040528060268152602001610de4602691396001600160a01b03861660009081526001602052604090205491906109ff565b6001600160a01b0380851660009081526001602052604080822093909355908416815220546109ab908261076f565b6001600160a01b0380841660008181526001602052604090819020939093559151908516907fddf252ad1be2c89b69c2b068fc378daa952ba7f163c4a11628f55a4df523b3ef906107629085815260200190565b60008184841115610a235760405162461bcd60e51b81526004016105299190610ce8565b506000610a308486610d53565b95945050505050565b6001600160a01b038216610a995760405162461bcd60e51b815260206004820152602160248201527f42455032303a206275726e2066726f6d20746865207a65726f206164647265736044820152607360f81b6064820152608401610529565b610ad681604051806060016040528060228152602001610e2f602291396001600160a01b03851660009081526001602052604090205491906109ff565b6001600160a01b038316600090815260016020526040902055600454610afc90826107d5565b6004556040518181526000906001600160a01b038416907fddf252ad1be2c89b69c2b068fc378daa952ba7f163c4a11628f55a4df523b3ef9060200160405180910390a35050565b6001600160a01b038116610ba95760405162461bcd60e51b815260206004820152602660248201527f4f776e61626c653a206e6577206f776e657220697320746865207a65726f206160448201526564647265737360d01b6064820152608401610529565b600080546040516001600160a01b03808516939216917f8be0079c531659141344cd1fd0a4f28419497f9722a3daafe3b4186f6b6457e091a3600080546001600160a01b0319166001600160a01b0392909216919091179055565b80356001600160a01b0381168114610c1b57600080fd5b919050565b600060208284031215610c31578081fd5b6107ce82610c04565b60008060408385031215610c4c578081fd5b610c5583610c04565b9150610c6360208401610c04565b90509250929050565b600080600060608486031215610c80578081fd5b610c8984610c04565b9250610c9760208501610c04565b9150604084013590509250925092565b60008060408385031215610cb9578182fd5b610cc283610c04565b946020939093013593505050565b600060208284031215610ce1578081fd5b5035919050565b6000602080835283518082850152825b81811015610d1457858101830151858201604001528201610cf8565b81811115610d255783604083870101525b50601f01601f1916929092016040019392505050565b60008219821115610d4e57610d4e610da5565b500190565b600082821015610d6557610d65610da5565b500390565b600181811c90821680610d7e57607f821691505b60208210811415610d9f57634e487b7160e01b600052602260045260246000fd5b50919050565b634e487b7160e01b600052601160045260246000fdfe42455032303a207472616e7366657220616d6f756e74206578636565647320616c6c6f77616e636542455032303a207472616e7366657220616d6f756e7420657863656564732062616c616e636542455032303a2064656372656173656420616c6c6f77616e63652062656c6f77207a65726f42455032303a206275726e20616d6f756e7420657863656564732062616c616e6365a26469706673582212207b53a552125e226fbdce4dcee427b9996f330f2ee4c271623bec9a2adb8a71a164736f6c63430008040033",
  "linkReferences": {},
  "deployedLinkReferences": {}
}