{"contracts/lottery.sol":{"lottery":{"abi":[{"inputs":[{"internalType":"address","name":"_tokenAddress","type":"address"}],"stateMutability":"nonpayable","type":"constructor"},{"anonymous":false,"inputs":[{"indexed":false,"internalType":"uint256","name":"_id","type":"uint256"},{"indexed":false,"internalType":"uint256","name":"_value","type":"uint256"}],"name":"logshh","type":"event"},{"inputs":[],"name":"UsdtInterface","outputs":[{"internalType":"contract IERC20","name":"","type":"address"}],"stateMutability":"view","type":"function"},{"inputs":[],"name":"allWinner","outputs":[{"internalType":"address[]","name":"","type":"address[]"}],"stateMutability":"view","type":"function"},{"inputs":[],"name":"allWinner1","outputs":[{"internalType":"address[]","name":"","type":"address[]"}],"stateMutability":"view","type":"function"},{"inputs":[],"name":"allWinner2","outputs":[{"internalType":"address[]","name":"","type":"address[]"}],"stateMutability":"view","type":"function"},{"inputs":[],"name":"announceLottery","outputs":[],"stateMutability":"nonpayable","type":"function"},{"inputs":[],"name":"announceLottery1","outputs":[],"stateMutability":"nonpayable","type":"function"},{"inputs":[],"name":"announceLottery2","outputs":[],"stateMutability":"nonpayable","type":"function"},{"inputs":[],"name":"getLottery1Length","outputs":[{"internalType":"uint256","name":"","type":"uint256"}],"stateMutability":"view","type":"function"},{"inputs":[],"name":"getLottery2Length","outputs":[{"internalType":"uint256","name":"","type":"uint256"}],"stateMutability":"view","type":"function"},{"inputs":[],"name":"getLotteryLength","outputs":[{"internalType":"uint256","name":"","type":"uint256"}],"stateMutability":"view","type":"function"},{"inputs":[{"internalType":"address","name":"ad","type":"address"}],"name":"howMany","outputs":[{"internalType":"uint256","name":"","type":"uint256"},{"internalType":"uint256","name":"","type":"uint256"},{"internalType":"uint256","name":"","type":"uint256"}],"stateMutability":"view","type":"function"},{"inputs":[],"name":"initization","outputs":[{"internalType":"bool","name":"","type":"bool"}],"stateMutability":"view","type":"function"},{"inputs":[{"internalType":"uint256","name":"_amount","type":"uint256"}],"name":"joinLottery","outputs":[],"stateMutability":"nonpayable","type":"function"},{"inputs":[{"internalType":"uint256","name":"_amount","type":"uint256"}],"name":"joinLottery1","outputs":[],"stateMutability":"nonpayable","type":"function"},{"inputs":[{"internalType":"uint256","name":"_amount","type":"uint256"}],"name":"joinLottery2","outputs":[],"stateMutability":"nonpayable","type":"function"},{"inputs":[],"name":"lotteryBalance","outputs":[{"internalType":"uint256","name":"","type":"uint256"}],"stateMutability":"view","type":"function"},{"inputs":[{"internalType":"uint256","name":"_maxNumbers","type":"uint256"}],"name":"setMaximmNumbers","outputs":[],"stateMutability":"nonpayable","type":"function"},{"inputs":[{"internalType":"uint256","name":"_maxNumbers","type":"uint256"}],"name":"setMaximmNumbers1","outputs":[],"stateMutability":"nonpayable","type":"function"},{"inputs":[{"internalType":"uint256","name":"_maxNumbers","type":"uint256"}],"name":"setMaximmNumbers2","outputs":[],"stateMutability":"nonpayable","type":"function"},{"inputs":[{"internalType":"uint256","name":"_valueInEther","type":"uint256"}],"name":"setTicketPrice","outputs":[],"stateMutability":"nonpayable","type":"function"},{"inputs":[{"internalType":"uint256","name":"_valueInEther","type":"uint256"}],"name":"setTicketPrice1","outputs":[],"stateMutability":"nonpayable","type":"function"},{"inputs":[{"internalType":"uint256","name":"_valueInEther","type":"uint256"}],"name":"setTicketPrice2","outputs":[],"stateMutability":"nonpayable","type":"function"},{"inputs":[],"name":"startLottery","outputs":[],"stateMutability":"nonpayable","type":"function"},{"inputs":[],"name":"tokenAdress","outputs":[{"internalType":"address","name":"","type":"address"}],"stateMutability":"view","type":"function"},{"inputs":[],"name":"viewTicket","outputs":[{"internalType":"uint256","name":"","type":"uint256"}],"stateMutability":"view","type":"function"},{"inputs":[],"name":"viewTicket1","outputs":[{"internalType":"uint256","name":"","type":"uint256"}],"stateMutability":"view","type":"function"},{"inputs":[],"name":"viewTicket2","outputs":[{"internalType":"uint256","name":"","type":"uint256"}],"stateMutability":"view","type":"function"},{"inputs":[],"name":"viewTicketPrice","outputs":[{"internalType":"uint256","name":"","type":"uint256"}],"stateMutability":"view","type":"function"},{"inputs":[],"name":"viewTicketPrice1","outputs":[{"internalType":"uint256","name":"","type":"uint256"}],"stateMutability":"view","type":"function"},{"inputs":[],"name":"viewTicketPrice2","outputs":[{"internalType":"uint256","name":"","type":"uint256"}],"stateMutability":"view","type":"function"},{"inputs":[{"internalType":"uint256","name":"","type":"uint256"}],"name":"winnerLottery","outputs":[{"internalType":"address","name":"","type":"address"}],"stateMutability":"view","type":"function"},{"inputs":[{"internalType":"uint256","name":"","type":"uint256"}],"name":"winnerLottery1","outputs":[{"internalType":"address","name":"","type":"address"}],"stateMutability":"view","type":"function"},{"inputs":[{"internalType":"uint256","name":"","type":"uint256"}],"name":"winnerLottery2","outputs":[{"internalType":"address","name":"","type":"address"}],"stateMutability":"view","type":"function"}],"devdoc":{"kind":"dev","methods":{},"version":1},"evm":{"bytecode":{"linkReferences":{},"object":"608060405260068054730a773fc7bf44d0daff430dbf6011d3be39260e8f6001600160a01b031991821681179092556007805490911690911790556010805460ff1916905534801561005057600080fd5b50604051611fc6380380611fc683398101604081905261006f916100e2565b600580546001600160a01b031990811633178255600a6001819055674563918244f40000600355600892909255678ac7230489e800009091556002600c556802b5e3af16b1880000600e55601480546001600160a01b039390931692821683179055601580549091169091179055610110565b6000602082840312156100f3578081fd5b81516001600160a01b0381168114610109578182fd5b9392505050565b611ea78061011f6000396000f3fe608060405234801561001057600080fd5b50600436106101fb5760003560e01c8063890d542f1161011a578063be69d7ff116100ad578063e437239f1161007c578063e437239f146103ce578063ea6b0480146103e1578063f0c30e95146103e9578063f19e8d86146103fc578063f77f15b51461040f57600080fd5b8063be69d7ff146103a3578063ce5f6b9f146103ab578063d521cf2a146103be578063db486929146103c657600080fd5b8063a308761a116100e9578063a308761a14610383578063a46eeb751461038b578063a7e9f0d114610393578063b22886491461039b57600080fd5b8063890d542f1461034d57806397c9c5a6146103605780639ec8070214610373578063a0a7bda81461037b57600080fd5b806356e0bd36116101925780636716f265116101615780636716f2651461030257806367b447de1461031f5780637eee9fc1146103325780638644024b1461034557600080fd5b806356e0bd361461028f578063576aaa2b146102ba578063602977ad146102cc578063636ad6a6146102fa57600080fd5b806317c6332c116101ce57806317c6332c146102435780633631ef4a146102565780633fc7adb6146102695780634ba351251461027c57600080fd5b8063013fc0ab14610200578063130024371461020a5780631598165014610228578063160344e21461023b575b600080fd5b610208610417565b005b610212610454565b60405161021f9190611c2f565b60405180910390f35b610208610236366004611bff565b610607565b610208610636565b610208610251366004611bff565b61066f565b610208610264366004611bff565b61069e565b610208610277366004611bff565b61086a565b61020861028a366004611bff565b610899565b6102a261029d366004611bff565b6108c8565b6040516001600160a01b03909116815260200161021f565b6004545b60405190815260200161021f565b6102df6102da366004611bb8565b6108f2565b6040805193845260208401929092529082015260600161021f565b6003546102be565b60105461030f9060ff1681565b604051901515815260200161021f565b6015546102a2906001600160a01b031681565b610208610340366004611bff565b610a84565b600e546102be565b6102a261035b366004611bff565b610c3d565b6014546102a2906001600160a01b031681565b6001546102be565b600f546102be565b6008546102be565b600b546102be565b610212610c4d565b6102be610def565b610208610e70565b6102086103b9366004611bff565b610ea2565b610212611098565b600c546102be565b6102086103dc366004611bff565b61123a565b600a546102be565b6102086103f7366004611bff565b611269565b6102a261040a366004611bff565b611298565b6102086112a8565b6005546001600160a01b0316331461044a5760405162461bcd60e51b815260040161044190611c7c565b60405180910390fd5b6104526112da565b565b6040805160118082526102408201909252606091600091906020820161022080368337019050506013548151919250906000600a83111561053f57825b61049c600a85611de8565b81111561053957826104ad81611e16565b935050601381815481106104d157634e487b7160e01b600052603260045260246000fd5b9060005260206000200160009054906101000a90046001600160a01b031685848151811061050f57634e487b7160e01b600052603260045260246000fd5b6001600160a01b03909216602092830291909101909101528061053181611dff565b915050610491565b506105fe565b825b80156105fc578261055181611e16565b9350600090506013610564600184611de8565b8154811061058257634e487b7160e01b600052603260045260246000fd5b9060005260206000200160009054906101000a90046001600160a01b03169050808684815181106105c357634e487b7160e01b600052603260045260246000fd5b6001600160a01b0390921660209283029190910190910152826105e581611e16565b9350505080806105f490611dff565b915050610541565b505b50919392505050565b6005546001600160a01b031633146106315760405162461bcd60e51b815260040161044190611c7c565b600355565b6005546001600160a01b031633146106605760405162461bcd60e51b815260040161044190611c7c565b6010805460ff19166001179055565b6005546001600160a01b031633146106995760405162461bcd60e51b815260040161044190611c7c565b600c55565b6005546001600160a01b03163314156106c95760405162461bcd60e51b815260040161044190611cee565b60005460ff16156106ec5760405162461bcd60e51b815260040161044190611cc6565b6000805460ff1916600117905560105460ff1661071b5760405162461bcd60e51b815260040161044190611d15565b600e54811461073c5760405162461bcd60e51b815260040161044190611ca4565b6015546040516323b872dd60e01b8152336004820152306024820152604481018390526000916001600160a01b0316906323b872dd90606401602060405180830381600087803b15801561078f57600080fd5b505af11580156107a3573d6000803e3d6000fd5b505050506040513d601f19601f820116820180604052508101906107c79190611bdf565b9050801561085c57600c54600d54101561084857600f805460018101825560009182527f8d1108e10bcb7c27dddfc02ed9d693a074039d026cf4ea4240b40f7d581ac8020180546001600160a01b03191633179055600d80549161082a83611e16565b9190505550600c54600d5414156108435761084361159e565b61085c565b600c54600d54141561085c5761085c61159e565b50506000805460ff19169055565b6005546001600160a01b031633146108945760405162461bcd60e51b815260040161044190611c7c565b600155565b6005546001600160a01b031633146108c35760405162461bcd60e51b815260040161044190611c7c565b600855565b601281815481106108d857600080fd5b6000918252602090912001546001600160a01b0316905081565b60045460009081908190819081908190801561097b5760005b8181101561097957886001600160a01b03166004828154811061093e57634e487b7160e01b600052603260045260246000fd5b6000918252602090912001546001600160a01b03161415610967578461096381611e16565b9550505b8061097181611e16565b91505061090b565b505b600b5480156109f75760005b818110156109f557896001600160a01b0316600b82815481106109ba57634e487b7160e01b600052603260045260246000fd5b6000918252602090912001546001600160a01b031614156109e357846109df81611e16565b9550505b806109ed81611e16565b915050610987565b505b600f548015610a735760005b81811015610a71578a6001600160a01b0316600f8281548110610a3657634e487b7160e01b600052603260045260246000fd5b6000918252602090912001546001600160a01b03161415610a5f5784610a5b81611e16565b9550505b80610a6981611e16565b915050610a03565b505b509398929750909550909350505050565b6005546001600160a01b0316331415610aaf5760405162461bcd60e51b815260040161044190611cee565b60005460ff1615610ad25760405162461bcd60e51b815260040161044190611cc6565b6000805460ff1916600117905560105460ff16610b015760405162461bcd60e51b815260040161044190611d15565b6003548114610b225760405162461bcd60e51b815260040161044190611ca4565b6015546040516323b872dd60e01b8152336004820152306024820152604481018390526000916001600160a01b0316906323b872dd90606401602060405180830381600087803b158015610b7557600080fd5b505af1158015610b89573d6000803e3d6000fd5b505050506040513d601f19601f82011682018060405250810190610bad9190611bdf565b9050801561085c576001546002541015610c29576004805460018101825560009182527f8a35acfbc15ff81a39ae7d344fd709f28e8600b4aa8c65c6b64bfe7fe36bd19b0180546001600160a01b031916331790556002805491610c1083611e16565b919050555060015460025414156108435761084361185b565b600154600254141561085c5761085c61185b565b601381815481106108d857600080fd5b6040805160118082526102408201909252606091600091906020820161022080368337019050506011548151919250906000600a831115610d3257825b610c95600a85611de8565b8111156105395782610ca681611e16565b93505060118181548110610cca57634e487b7160e01b600052603260045260246000fd5b9060005260206000200160009054906101000a90046001600160a01b0316858481518110610d0857634e487b7160e01b600052603260045260246000fd5b6001600160a01b039092166020928302919091019091015280610d2a81611dff565b915050610c8a565b825b80156105fc5782610d4481611e16565b9350600090506011610d57600184611de8565b81548110610d7557634e487b7160e01b600052603260045260246000fd5b9060005260206000200160009054906101000a90046001600160a01b0316905080868481518110610db657634e487b7160e01b600052603260045260246000fd5b6001600160a01b039092166020928302919091019091015282610dd881611e16565b935050508080610de790611dff565b915050610d34565b6015546040516370a0823160e01b81523060048201526000916001600160a01b0316906370a082319060240160206040518083038186803b158015610e3357600080fd5b505afa158015610e47573d6000803e3d6000fd5b505050506040513d601f19601f82011682018060405250810190610e6b9190611c17565b905090565b6005546001600160a01b03163314610e9a5760405162461bcd60e51b815260040161044190611c7c565b61045261159e565b6005546001600160a01b0316331415610ecd5760405162461bcd60e51b815260040161044190611cee565b60005460ff1615610ef05760405162461bcd60e51b815260040161044190611cc6565b6000805460ff1916600117905560105460ff16610f1f5760405162461bcd60e51b815260040161044190611d15565b600a546040805183815260208101929092527fa3de883741aefa0083d54de95483572ad5eaa074b33a0ae8dc98725d52cf8143910160405180910390a1600a548114610f7d5760405162461bcd60e51b815260040161044190611ca4565b6015546040516323b872dd60e01b8152336004820152306024820152604481018390526000916001600160a01b0316906323b872dd90606401602060405180830381600087803b158015610fd057600080fd5b505af1158015610fe4573d6000803e3d6000fd5b505050506040513d601f19601f820116820180604052508101906110089190611bdf565b9050801561085c57600854600954101561108457600b805460018101825560009182527f0175b7a638427703f0dbe7bb9bbf987a2551717b34e79f33b5b1008d1fa01db90180546001600160a01b03191633179055600980549161106b83611e16565b91905055506008546009541415610843576108436112da565b600854600954141561085c5761085c6112da565b6040805160118082526102408201909252606091600091906020820161022080368337019050506012548151919250906000600a83111561117d57825b6110e0600a85611de8565b81111561053957826110f181611e16565b9350506012818154811061111557634e487b7160e01b600052603260045260246000fd5b9060005260206000200160009054906101000a90046001600160a01b031685848151811061115357634e487b7160e01b600052603260045260246000fd5b6001600160a01b03909216602092830291909101909101528061117581611dff565b9150506110d5565b825b80156105fc578261118f81611e16565b93506000905060126111a2600184611de8565b815481106111c057634e487b7160e01b600052603260045260246000fd5b9060005260206000200160009054906101000a90046001600160a01b031690508086848151811061120157634e487b7160e01b600052603260045260246000fd5b6001600160a01b03909216602092830291909101909101528261122381611e16565b93505050808061123290611dff565b91505061117f565b6005546001600160a01b031633146112645760405162461bcd60e51b815260040161044190611c7c565b600a55565b6005546001600160a01b031633146112935760405162461bcd60e51b815260040161044190611c7c565b600e55565b601181815481106108d857600080fd5b6005546001600160a01b031633146112d25760405162461bcd60e51b815260040161044190611c7c565b61045261185b565b600b546000906112e8611b1b565b6112f29190611e31565b600b54600a549192506000916113089190611dc9565b9050600061132161131a83601a611b53565b6064611b66565b9050600061133361131a846004611b53565b60155460065460405163a9059cbb60e01b81526001600160a01b03918216600482015260248101869052929350169063a9059cbb90604401602060405180830381600087803b15801561138557600080fd5b505af1158015611399573d6000803e3d6000fd5b505050506040513d601f19601f820116820180604052508101906113bd9190611bdf565b5060006113ca8484611b72565b90506113d68282611de8565b60155460075460405163a9059cbb60e01b81526001600160a01b03918216600482015260248101869052929350169063a9059cbb90604401602060405180830381600087803b15801561142857600080fd5b505af115801561143c573d6000803e3d6000fd5b505050506040513d601f19601f820116820180604052508101906114609190611bdf565b50601554600b80546001600160a01b039092169163a9059cbb91908890811061149957634e487b7160e01b600052603260045260246000fd5b60009182526020909120015460405160e083901b6001600160e01b03191681526001600160a01b03909116600482015260248101849052604401602060405180830381600087803b1580156114ed57600080fd5b505af1158015611501573d6000803e3d6000fd5b505050506040513d601f19601f820116820180604052508101906115259190611bdf565b506012600b868154811061154957634e487b7160e01b600052603260045260246000fd5b6000918252602080832090910154835460018101855593835290822090920180546001600160a01b0319166001600160a01b039093169290921790915561159290600b90611b7e565b50506000600955505050565b600f546000906115ac611b1b565b6115b69190611e31565b600f54600e549192506000916115cc9190611dc9565b905060006115de61131a83601a611b53565b905060006115f061131a846004611b53565b60155460065460405163a9059cbb60e01b81526001600160a01b03918216600482015260248101869052929350169063a9059cbb90604401602060405180830381600087803b15801561164257600080fd5b505af1158015611656573d6000803e3d6000fd5b505050506040513d601f19601f8201168201806040525081019061167a9190611bdf565b5060006116878484611b72565b90506116938282611de8565b60155460075460405163a9059cbb60e01b81526001600160a01b03918216600482015260248101869052929350169063a9059cbb90604401602060405180830381600087803b1580156116e557600080fd5b505af11580156116f9573d6000803e3d6000fd5b505050506040513d601f19601f8201168201806040525081019061171d9190611bdf565b50601554600f80546001600160a01b039092169163a9059cbb91908890811061175657634e487b7160e01b600052603260045260246000fd5b60009182526020909120015460405160e083901b6001600160e01b03191681526001600160a01b03909116600482015260248101849052604401602060405180830381600087803b1580156117aa57600080fd5b505af11580156117be573d6000803e3d6000fd5b505050506040513d601f19601f820116820180604052508101906117e29190611bdf565b506013600f868154811061180657634e487b7160e01b600052603260045260246000fd5b6000918252602080832090910154835460018101855593835290822090920180546001600160a01b0319166001600160a01b039093169290921790915561184f90600f90611b7e565b50506000600d55505050565b600454600090611869611b1b565b6118739190611e31565b6004546003549192509060009061188b908390611dc9565b9050600061189d61131a83601a611b53565b905060006118af61131a846004611b53565b60155460065460405163a9059cbb60e01b81526001600160a01b03918216600482015260248101869052929350169063a9059cbb90604401602060405180830381600087803b15801561190157600080fd5b505af1158015611915573d6000803e3d6000fd5b505050506040513d601f19601f820116820180604052508101906119399190611bdf565b5060006119468484611b72565b90506119528282611de8565b60155460075460405163a9059cbb60e01b81526001600160a01b03918216600482015260248101869052929350169063a9059cbb90604401602060405180830381600087803b1580156119a457600080fd5b505af11580156119b8573d6000803e3d6000fd5b505050506040513d601f19601f820116820180604052508101906119dc9190611bdf565b50601554600480546001600160a01b039092169163a9059cbb919089908110611a1557634e487b7160e01b600052603260045260246000fd5b60009182526020909120015460405160e083901b6001600160e01b03191681526001600160a01b03909116600482015260248101849052604401602060405180830381600087803b158015611a6957600080fd5b505af1158015611a7d573d6000803e3d6000fd5b505050506040513d601f19601f82011682018060405250810190611aa19190611bdf565b50601160048781548110611ac557634e487b7160e01b600052603260045260246000fd5b6000918252602080832090910154835460018101855593835290822090920180546001600160a01b0319166001600160a01b0390931692909217909155611b0e90600490611b7e565b5050600060025550505050565b60004442600443604051602001611b359493929190611d4c565b6040516020818303038152906040528051906020012060001c905090565b6000611b5f8284611dc9565b9392505050565b6000611b5f8284611db5565b6000611b5f8284611de8565b5080546000825590600052602060002090810190611b9c9190611b9f565b50565b5b80821115611bb45760008155600101611ba0565b5090565b600060208284031215611bc9578081fd5b81356001600160a01b0381168114611b5f578182fd5b600060208284031215611bf0578081fd5b81518015158114611b5f578182fd5b600060208284031215611c10578081fd5b5035919050565b600060208284031215611c28578081fd5b5051919050565b6020808252825182820181905260009190848201906040850190845b81811015611c705783516001600160a01b031683529284019291840191600101611c4b565b50909695505050505050565b6020808252600e908201526d4163636573732064656e6965642160901b604082015260600190565b6020808252600890820152674e6f742053616d6560c01b604082015260600190565b6020808252600e908201526d4e6f2072652d656e7472616e637960901b604082015260600190565b6020808252600d908201526c1058d8d95cdcc819195b9a5959609a1b604082015260600190565b6020808252601a908201527f4c6f7474657279206973206e6f74207374617274656420796574000000000000604082015260600190565b600060808201868352602086818501526080604085015281865480845260a0860191508785528285209350845b81811015611d9e5784546001600160a01b031683526001948501949284019201611d79565b505080935050505082606083015295945050505050565b600082611dc457611dc4611e5b565b500490565b6000816000190483118215151615611de357611de3611e45565b500290565b600082821015611dfa57611dfa611e45565b500390565b600081611e0e57611e0e611e45565b506000190190565b6000600019821415611e2a57611e2a611e45565b5060010190565b600082611e4057611e40611e5b565b500690565b634e487b7160e01b600052601160045260246000fd5b634e487b7160e01b600052601260045260246000fdfea26469706673582212200e7186cb9ed1baa58d374d1c0e7a0944e009f9af9b44730fe01f35a0efba048064736f6c63430008040033","opcodes":"PUSH1 0x80 PUSH1 0x40 MSTORE PUSH1 0x6 DUP1 SLOAD PUSH20 0xA773FC7BF44D0DAFF430DBF6011D3BE39260E8F PUSH1 0x1 PUSH1 0x1 PUSH1 0xA0 SHL SUB NOT SWAP2 DUP3 AND DUP2 OR SWAP1 SWAP3 SSTORE PUSH1 0x7 DUP1 SLOAD SWAP1 SWAP2 AND SWAP1 SWAP2 OR SWAP1 SSTORE PUSH1 0x10 DUP1 SLOAD PUSH1 0xFF NOT AND SWAP1 SSTORE CALLVALUE DUP1 ISZERO PUSH2 0x50 JUMPI PUSH1 0x0 DUP1 REVERT JUMPDEST POP PUSH1 0x40 MLOAD PUSH2 0x1FC6 CODESIZE SUB DUP1 PUSH2 0x1FC6 DUP4 CODECOPY DUP2 ADD PUSH1 0x40 DUP2 SWAP1 MSTORE PUSH2 0x6F SWAP2 PUSH2 0xE2 JUMP JUMPDEST PUSH1 0x5 DUP1 SLOAD PUSH1 0x1 PUSH1 0x1 PUSH1 0xA0 SHL SUB NOT SWAP1 DUP2 AND CALLER OR DUP3 SSTORE PUSH1 0xA PUSH1 0x1 DUP2 SWAP1 SSTORE PUSH8 0x4563918244F40000 PUSH1 0x3 SSTORE PUSH1 0x8 SWAP3 SWAP1 SWAP3 SSTORE PUSH8 0x8AC7230489E80000 SWAP1 SWAP2 SSTORE PUSH1 0x2 PUSH1 0xC SSTORE PUSH9 0x2B5E3AF16B1880000 PUSH1 0xE SSTORE PUSH1 0x14 DUP1 SLOAD PUSH1 0x1 PUSH1 0x1 PUSH1 0xA0 SHL SUB SWAP4 SWAP1 SWAP4 AND SWAP3 DUP3 AND DUP4 OR SWAP1 SSTORE PUSH1 0x15 DUP1 SLOAD SWAP1 SWAP2 AND SWAP1 SWAP2 OR SWAP1 SSTORE PUSH2 0x110 JUMP JUMPDEST PUSH1 0x0 PUSH1 0x20 DUP3 DUP5 SUB SLT ISZERO PUSH2 0xF3 JUMPI DUP1 DUP2 REVERT JUMPDEST DUP2 MLOAD PUSH1 0x1 PUSH1 0x1 PUSH1 0xA0 SHL SUB DUP2 AND DUP2 EQ PUSH2 0x109 JUMPI DUP2 DUP3 REVERT JUMPDEST SWAP4 SWAP3 POP POP POP JUMP JUMPDEST PUSH2 0x1EA7 DUP1 PUSH2 0x11F PUSH1 0x0 CODECOPY PUSH1 0x0 RETURN INVALID PUSH1 0x80 PUSH1 0x40 MSTORE CALLVALUE DUP1 ISZERO PUSH2 0x10 JUMPI PUSH1 0x0 DUP1 REVERT JUMPDEST POP PUSH1 0x4 CALLDATASIZE LT PUSH2 0x1FB JUMPI PUSH1 0x0 CALLDATALOAD PUSH1 0xE0 SHR DUP1 PUSH4 0x890D542F GT PUSH2 0x11A JUMPI DUP1 PUSH4 0xBE69D7FF GT PUSH2 0xAD JUMPI DUP1 PUSH4 0xE437239F GT PUSH2 0x7C JUMPI DUP1 PUSH4 0xE437239F EQ PUSH2 0x3CE JUMPI DUP1 PUSH4 0xEA6B0480 EQ PUSH2 0x3E1 JUMPI DUP1 PUSH4 0xF0C30E95 EQ PUSH2 0x3E9 JUMPI DUP1 PUSH4 0xF19E8D86 EQ PUSH2 0x3FC JUMPI DUP1 PUSH4 0xF77F15B5 EQ PUSH2 0x40F JUMPI PUSH1 0x0 DUP1 REVERT JUMPDEST DUP1 PUSH4 0xBE69D7FF EQ PUSH2 0x3A3 JUMPI DUP1 PUSH4 0xCE5F6B9F EQ PUSH2 0x3AB JUMPI DUP1 PUSH4 0xD521CF2A EQ PUSH2 0x3BE JUMPI DUP1 PUSH4 0xDB486929 EQ PUSH2 0x3C6 JUMPI PUSH1 0x0 DUP1 REVERT JUMPDEST DUP1 PUSH4 0xA308761A GT PUSH2 0xE9 JUMPI DUP1 PUSH4 0xA308761A EQ PUSH2 0x383 JUMPI DUP1 PUSH4 0xA46EEB75 EQ PUSH2 0x38B JUMPI DUP1 PUSH4 0xA7E9F0D1 EQ PUSH2 0x393 JUMPI DUP1 PUSH4 0xB2288649 EQ PUSH2 0x39B JUMPI PUSH1 0x0 DUP1 REVERT JUMPDEST DUP1 PUSH4 0x890D542F EQ PUSH2 0x34D JUMPI DUP1 PUSH4 0x97C9C5A6 EQ PUSH2 0x360 JUMPI DUP1 PUSH4 0x9EC80702 EQ PUSH2 0x373 JUMPI DUP1 PUSH4 0xA0A7BDA8 EQ PUSH2 0x37B JUMPI PUSH1 0x0 DUP1 REVERT JUMPDEST DUP1 PUSH4 0x56E0BD36 GT PUSH2 0x192 JUMPI DUP1 PUSH4 0x6716F265 GT PUSH2 0x161 JUMPI DUP1 PUSH4 0x6716F265 EQ PUSH2 0x302 JUMPI DUP1 PUSH4 0x67B447DE EQ PUSH2 0x31F JUMPI DUP1 PUSH4 0x7EEE9FC1 EQ PUSH2 0x332 JUMPI DUP1 PUSH4 0x8644024B EQ PUSH2 0x345 JUMPI PUSH1 0x0 DUP1 REVERT JUMPDEST DUP1 PUSH4 0x56E0BD36 EQ PUSH2 0x28F JUMPI DUP1 PUSH4 0x576AAA2B EQ PUSH2 0x2BA JUMPI DUP1 PUSH4 0x602977AD EQ PUSH2 0x2CC JUMPI DUP1 PUSH4 0x636AD6A6 EQ PUSH2 0x2FA JUMPI PUSH1 0x0 DUP1 REVERT JUMPDEST DUP1 PUSH4 0x17C6332C GT PUSH2 0x1CE JUMPI DUP1 PUSH4 0x17C6332C EQ PUSH2 0x243 JUMPI DUP1 PUSH4 0x3631EF4A EQ PUSH2 0x256 JUMPI DUP1 PUSH4 0x3FC7ADB6 EQ PUSH2 0x269 JUMPI DUP1 PUSH4 0x4BA35125 EQ PUSH2 0x27C JUMPI PUSH1 0x0 DUP1 REVERT JUMPDEST DUP1 PUSH4 0x13FC0AB EQ PUSH2 0x200 JUMPI DUP1 PUSH4 0x13002437 EQ PUSH2 0x20A JUMPI DUP1 PUSH4 0x15981650 EQ PUSH2 0x228 JUMPI DUP1 PUSH4 0x160344E2 EQ PUSH2 0x23B JUMPI JUMPDEST PUSH1 0x0 DUP1 REVERT JUMPDEST PUSH2 0x208 PUSH2 0x417 JUMP JUMPDEST STOP JUMPDEST PUSH2 0x212 PUSH2 0x454 JUMP JUMPDEST PUSH1 0x40 MLOAD PUSH2 0x21F SWAP2 SWAP1 PUSH2 0x1C2F JUMP JUMPDEST PUSH1 0x40 MLOAD DUP1 SWAP2 SUB SWAP1 RETURN JUMPDEST PUSH2 0x208 PUSH2 0x236 CALLDATASIZE PUSH1 0x4 PUSH2 0x1BFF JUMP JUMPDEST PUSH2 0x607 JUMP JUMPDEST PUSH2 0x208 PUSH2 0x636 JUMP JUMPDEST PUSH2 0x208 PUSH2 0x251 CALLDATASIZE PUSH1 0x4 PUSH2 0x1BFF JUMP JUMPDEST PUSH2 0x66F JUMP JUMPDEST PUSH2 0x208 PUSH2 0x264 CALLDATASIZE PUSH1 0x4 PUSH2 0x1BFF JUMP JUMPDEST PUSH2 0x69E JUMP JUMPDEST PUSH2 0x208 PUSH2 0x277 CALLDATASIZE PUSH1 0x4 PUSH2 0x1BFF JUMP JUMPDEST PUSH2 0x86A JUMP JUMPDEST PUSH2 0x208 PUSH2 0x28A CALLDATASIZE PUSH1 0x4 PUSH2 0x1BFF JUMP JUMPDEST PUSH2 0x899 JUMP JUMPDEST PUSH2 0x2A2 PUSH2 0x29D CALLDATASIZE PUSH1 0x4 PUSH2 0x1BFF JUMP JUMPDEST PUSH2 0x8C8 JUMP JUMPDEST PUSH1 0x40 MLOAD PUSH1 0x1 PUSH1 0x1 PUSH1 0xA0 SHL SUB SWAP1 SWAP2 AND DUP2 MSTORE PUSH1 0x20 ADD PUSH2 0x21F JUMP JUMPDEST PUSH1 0x4 SLOAD JUMPDEST PUSH1 0x40 MLOAD SWAP1 DUP2 MSTORE PUSH1 0x20 ADD PUSH2 0x21F JUMP JUMPDEST PUSH2 0x2DF PUSH2 0x2DA CALLDATASIZE PUSH1 0x4 PUSH2 0x1BB8 JUMP JUMPDEST PUSH2 0x8F2 JUMP JUMPDEST PUSH1 0x40 DUP1 MLOAD SWAP4 DUP5 MSTORE PUSH1 0x20 DUP5 ADD SWAP3 SWAP1 SWAP3 MSTORE SWAP1 DUP3 ADD MSTORE PUSH1 0x60 ADD PUSH2 0x21F JUMP JUMPDEST PUSH1 0x3 SLOAD PUSH2 0x2BE JUMP JUMPDEST PUSH1 0x10 SLOAD PUSH2 0x30F SWAP1 PUSH1 0xFF AND DUP2 JUMP JUMPDEST PUSH1 0x40 MLOAD SWAP1 ISZERO ISZERO DUP2 MSTORE PUSH1 0x20 ADD PUSH2 0x21F JUMP JUMPDEST PUSH1 0x15 SLOAD PUSH2 0x2A2 SWAP1 PUSH1 0x1 PUSH1 0x1 PUSH1 0xA0 SHL SUB AND DUP2 JUMP JUMPDEST PUSH2 0x208 PUSH2 0x340 CALLDATASIZE PUSH1 0x4 PUSH2 0x1BFF JUMP JUMPDEST PUSH2 0xA84 JUMP JUMPDEST PUSH1 0xE SLOAD PUSH2 0x2BE JUMP JUMPDEST PUSH2 0x2A2 PUSH2 0x35B CALLDATASIZE PUSH1 0x4 PUSH2 0x1BFF JUMP JUMPDEST PUSH2 0xC3D JUMP JUMPDEST PUSH1 0x14 SLOAD PUSH2 0x2A2 SWAP1 PUSH1 0x1 PUSH1 0x1 PUSH1 0xA0 SHL SUB AND DUP2 JUMP JUMPDEST PUSH1 0x1 SLOAD PUSH2 0x2BE JUMP JUMPDEST PUSH1 0xF SLOAD PUSH2 0x2BE JUMP JUMPDEST PUSH1 0x8 SLOAD PUSH2 0x2BE JUMP JUMPDEST PUSH1 0xB SLOAD PUSH2 0x2BE JUMP JUMPDEST PUSH2 0x212 PUSH2 0xC4D JUMP JUMPDEST PUSH2 0x2BE PUSH2 0xDEF JUMP JUMPDEST PUSH2 0x208 PUSH2 0xE70 JUMP JUMPDEST PUSH2 0x208 PUSH2 0x3B9 CALLDATASIZE PUSH1 0x4 PUSH2 0x1BFF JUMP JUMPDEST PUSH2 0xEA2 JUMP JUMPDEST PUSH2 0x212 PUSH2 0x1098 JUMP JUMPDEST PUSH1 0xC SLOAD PUSH2 0x2BE JUMP JUMPDEST PUSH2 0x208 PUSH2 0x3DC CALLDATASIZE PUSH1 0x4 PUSH2 0x1BFF JUMP JUMPDEST PUSH2 0x123A JUMP JUMPDEST PUSH1 0xA SLOAD PUSH2 0x2BE JUMP JUMPDEST PUSH2 0x208 PUSH2 0x3F7 CALLDATASIZE PUSH1 0x4 PUSH2 0x1BFF JUMP JUMPDEST PUSH2 0x1269 JUMP JUMPDEST PUSH2 0x2A2 PUSH2 0x40A CALLDATASIZE PUSH1 0x4 PUSH2 0x1BFF JUMP JUMPDEST PUSH2 0x1298 JUMP JUMPDEST PUSH2 0x208 PUSH2 0x12A8 JUMP JUMPDEST PUSH1 0x5 SLOAD PUSH1 0x1 PUSH1 0x1 PUSH1 0xA0 SHL SUB AND CALLER EQ PUSH2 0x44A JUMPI PUSH1 0x40 MLOAD PUSH3 0x461BCD PUSH1 0xE5 SHL DUP2 MSTORE PUSH1 0x4 ADD PUSH2 0x441 SWAP1 PUSH2 0x1C7C JUMP JUMPDEST PUSH1 0x40 MLOAD DUP1 SWAP2 SUB SWAP1 REVERT JUMPDEST PUSH2 0x452 PUSH2 0x12DA JUMP JUMPDEST JUMP JUMPDEST PUSH1 0x40 DUP1 MLOAD PUSH1 0x11 DUP1 DUP3 MSTORE PUSH2 0x240 DUP3 ADD SWAP1 SWAP3 MSTORE PUSH1 0x60 SWAP2 PUSH1 0x0 SWAP2 SWAP1 PUSH1 0x20 DUP3 ADD PUSH2 0x220 DUP1 CALLDATASIZE DUP4 CALLDATACOPY ADD SWAP1 POP POP PUSH1 0x13 SLOAD DUP2 MLOAD SWAP2 SWAP3 POP SWAP1 PUSH1 0x0 PUSH1 0xA DUP4 GT ISZERO PUSH2 0x53F JUMPI DUP3 JUMPDEST PUSH2 0x49C PUSH1 0xA DUP6 PUSH2 0x1DE8 JUMP JUMPDEST DUP2 GT ISZERO PUSH2 0x539 JUMPI DUP3 PUSH2 0x4AD DUP2 PUSH2 0x1E16 JUMP JUMPDEST SWAP4 POP POP PUSH1 0x13 DUP2 DUP2 SLOAD DUP2 LT PUSH2 0x4D1 JUMPI PUSH4 0x4E487B71 PUSH1 0xE0 SHL PUSH1 0x0 MSTORE PUSH1 0x32 PUSH1 0x4 MSTORE PUSH1 0x24 PUSH1 0x0 REVERT JUMPDEST SWAP1 PUSH1 0x0 MSTORE PUSH1 0x20 PUSH1 0x0 KECCAK256 ADD PUSH1 0x0 SWAP1 SLOAD SWAP1 PUSH2 0x100 EXP SWAP1 DIV PUSH1 0x1 PUSH1 0x1 PUSH1 0xA0 SHL SUB AND DUP6 DUP5 DUP2 MLOAD DUP2 LT PUSH2 0x50F JUMPI PUSH4 0x4E487B71 PUSH1 0xE0 SHL PUSH1 0x0 MSTORE PUSH1 0x32 PUSH1 0x4 MSTORE PUSH1 0x24 PUSH1 0x0 REVERT JUMPDEST PUSH1 0x1 PUSH1 0x1 PUSH1 0xA0 SHL SUB SWAP1 SWAP3 AND PUSH1 0x20 SWAP3 DUP4 MUL SWAP2 SWAP1 SWAP2 ADD SWAP1 SWAP2 ADD MSTORE DUP1 PUSH2 0x531 DUP2 PUSH2 0x1DFF JUMP JUMPDEST SWAP2 POP POP PUSH2 0x491 JUMP JUMPDEST POP PUSH2 0x5FE JUMP JUMPDEST DUP3 JUMPDEST DUP1 ISZERO PUSH2 0x5FC JUMPI DUP3 PUSH2 0x551 DUP2 PUSH2 0x1E16 JUMP JUMPDEST SWAP4 POP PUSH1 0x0 SWAP1 POP PUSH1 0x13 PUSH2 0x564 PUSH1 0x1 DUP5 PUSH2 0x1DE8 JUMP JUMPDEST DUP2 SLOAD DUP2 LT PUSH2 0x582 JUMPI PUSH4 0x4E487B71 PUSH1 0xE0 SHL PUSH1 0x0 MSTORE PUSH1 0x32 PUSH1 0x4 MSTORE PUSH1 0x24 PUSH1 0x0 REVERT JUMPDEST SWAP1 PUSH1 0x0 MSTORE PUSH1 0x20 PUSH1 0x0 KECCAK256 ADD PUSH1 0x0 SWAP1 SLOAD SWAP1 PUSH2 0x100 EXP SWAP1 DIV PUSH1 0x1 PUSH1 0x1 PUSH1 0xA0 SHL SUB AND SWAP1 POP DUP1 DUP7 DUP5 DUP2 MLOAD DUP2 LT PUSH2 0x5C3 JUMPI PUSH4 0x4E487B71 PUSH1 0xE0 SHL PUSH1 0x0 MSTORE PUSH1 0x32 PUSH1 0x4 MSTORE PUSH1 0x24 PUSH1 0x0 REVERT JUMPDEST PUSH1 0x1 PUSH1 0x1 PUSH1 0xA0 SHL SUB SWAP1 SWAP3 AND PUSH1 0x20 SWAP3 DUP4 MUL SWAP2 SWAP1 SWAP2 ADD SWAP1 SWAP2 ADD MSTORE DUP3 PUSH2 0x5E5 DUP2 PUSH2 0x1E16 JUMP JUMPDEST SWAP4 POP POP POP DUP1 DUP1 PUSH2 0x5F4 SWAP1 PUSH2 0x1DFF JUMP JUMPDEST SWAP2 POP POP PUSH2 0x541 JUMP JUMPDEST POP JUMPDEST POP SWAP2 SWAP4 SWAP3 POP POP POP JUMP JUMPDEST PUSH1 0x5 SLOAD PUSH1 0x1 PUSH1 0x1 PUSH1 0xA0 SHL SUB AND CALLER EQ PUSH2 0x631 JUMPI PUSH1 0x40 MLOAD PUSH3 0x461BCD PUSH1 0xE5 SHL DUP2 MSTORE PUSH1 0x4 ADD PUSH2 0x441 SWAP1 PUSH2 0x1C7C JUMP JUMPDEST PUSH1 0x3 SSTORE JUMP JUMPDEST PUSH1 0x5 SLOAD PUSH1 0x1 PUSH1 0x1 PUSH1 0xA0 SHL SUB AND CALLER EQ PUSH2 0x660 JUMPI PUSH1 0x40 MLOAD PUSH3 0x461BCD PUSH1 0xE5 SHL DUP2 MSTORE PUSH1 0x4 ADD PUSH2 0x441 SWAP1 PUSH2 0x1C7C JUMP JUMPDEST PUSH1 0x10 DUP1 SLOAD PUSH1 0xFF NOT AND PUSH1 0x1 OR SWAP1 SSTORE JUMP JUMPDEST PUSH1 0x5 SLOAD PUSH1 0x1 PUSH1 0x1 PUSH1 0xA0 SHL SUB AND CALLER EQ PUSH2 0x699 JUMPI PUSH1 0x40 MLOAD PUSH3 0x461BCD PUSH1 0xE5 SHL DUP2 MSTORE PUSH1 0x4 ADD PUSH2 0x441 SWAP1 PUSH2 0x1C7C JUMP JUMPDEST PUSH1 0xC SSTORE JUMP JUMPDEST PUSH1 0x5 SLOAD PUSH1 0x1 PUSH1 0x1 PUSH1 0xA0 SHL SUB AND CALLER EQ ISZERO PUSH2 0x6C9 JUMPI PUSH1 0x40 MLOAD PUSH3 0x461BCD PUSH1 0xE5 SHL DUP2 MSTORE PUSH1 0x4 ADD PUSH2 0x441 SWAP1 PUSH2 0x1CEE JUMP JUMPDEST PUSH1 0x0 SLOAD PUSH1 0xFF AND ISZERO PUSH2 0x6EC JUMPI PUSH1 0x40 MLOAD PUSH3 0x461BCD PUSH1 0xE5 SHL DUP2 MSTORE PUSH1 0x4 ADD PUSH2 0x441 SWAP1 PUSH2 0x1CC6 JUMP JUMPDEST PUSH1 0x0 DUP1 SLOAD PUSH1 0xFF NOT AND PUSH1 0x1 OR SWAP1 SSTORE PUSH1 0x10 SLOAD PUSH1 0xFF AND PUSH2 0x71B JUMPI PUSH1 0x40 MLOAD PUSH3 0x461BCD PUSH1 0xE5 SHL DUP2 MSTORE PUSH1 0x4 ADD PUSH2 0x441 SWAP1 PUSH2 0x1D15 JUMP JUMPDEST PUSH1 0xE SLOAD DUP2 EQ PUSH2 0x73C JUMPI PUSH1 0x40 MLOAD PUSH3 0x461BCD PUSH1 0xE5 SHL DUP2 MSTORE PUSH1 0x4 ADD PUSH2 0x441 SWAP1 PUSH2 0x1CA4 JUMP JUMPDEST PUSH1 0x15 SLOAD PUSH1 0x40 MLOAD PUSH4 0x23B872DD PUSH1 0xE0 SHL DUP2 MSTORE CALLER PUSH1 0x4 DUP3 ADD MSTORE ADDRESS PUSH1 0x24 DUP3 ADD MSTORE PUSH1 0x44 DUP2 ADD DUP4 SWAP1 MSTORE PUSH1 0x0 SWAP2 PUSH1 0x1 PUSH1 0x1 PUSH1 0xA0 SHL SUB AND SWAP1 PUSH4 0x23B872DD SWAP1 PUSH1 0x64 ADD PUSH1 0x20 PUSH1 0x40 MLOAD DUP1 DUP4 SUB DUP2 PUSH1 0x0 DUP8 DUP1 EXTCODESIZE ISZERO DUP1 ISZERO PUSH2 0x78F JUMPI PUSH1 0x0 DUP1 REVERT JUMPDEST POP GAS CALL ISZERO DUP1 ISZERO PUSH2 0x7A3 JUMPI RETURNDATASIZE PUSH1 0x0 DUP1 RETURNDATACOPY RETURNDATASIZE PUSH1 0x0 REVERT JUMPDEST POP POP POP POP PUSH1 0x40 MLOAD RETURNDATASIZE PUSH1 0x1F NOT PUSH1 0x1F DUP3 ADD AND DUP3 ADD DUP1 PUSH1 0x40 MSTORE POP DUP2 ADD SWAP1 PUSH2 0x7C7 SWAP2 SWAP1 PUSH2 0x1BDF JUMP JUMPDEST SWAP1 POP DUP1 ISZERO PUSH2 0x85C JUMPI PUSH1 0xC SLOAD PUSH1 0xD SLOAD LT ISZERO PUSH2 0x848 JUMPI PUSH1 0xF DUP1 SLOAD PUSH1 0x1 DUP2 ADD DUP3 SSTORE PUSH1 0x0 SWAP2 DUP3 MSTORE PUSH32 0x8D1108E10BCB7C27DDDFC02ED9D693A074039D026CF4EA4240B40F7D581AC802 ADD DUP1 SLOAD PUSH1 0x1 PUSH1 0x1 PUSH1 0xA0 SHL SUB NOT AND CALLER OR SWAP1 SSTORE PUSH1 0xD DUP1 SLOAD SWAP2 PUSH2 0x82A DUP4 PUSH2 0x1E16 JUMP JUMPDEST SWAP2 SWAP1 POP SSTORE POP PUSH1 0xC SLOAD PUSH1 0xD SLOAD EQ ISZERO PUSH2 0x843 JUMPI PUSH2 0x843 PUSH2 0x159E JUMP JUMPDEST PUSH2 0x85C JUMP JUMPDEST PUSH1 0xC SLOAD PUSH1 0xD SLOAD EQ ISZERO PUSH2 0x85C JUMPI PUSH2 0x85C PUSH2 0x159E JUMP JUMPDEST POP POP PUSH1 0x0 DUP1 SLOAD PUSH1 0xFF NOT AND SWAP1 SSTORE JUMP JUMPDEST PUSH1 0x5 SLOAD PUSH1 0x1 PUSH1 0x1 PUSH1 0xA0 SHL SUB AND CALLER EQ PUSH2 0x894 JUMPI PUSH1 0x40 MLOAD PUSH3 0x461BCD PUSH1 0xE5 SHL DUP2 MSTORE PUSH1 0x4 ADD PUSH2 0x441 SWAP1 PUSH2 0x1C7C JUMP JUMPDEST PUSH1 0x1 SSTORE JUMP JUMPDEST PUSH1 0x5 SLOAD PUSH1 0x1 PUSH1 0x1 PUSH1 0xA0 SHL SUB AND CALLER EQ PUSH2 0x8C3 JUMPI PUSH1 0x40 MLOAD PUSH3 0x461BCD PUSH1 0xE5 SHL DUP2 MSTORE PUSH1 0x4 ADD PUSH2 0x441 SWAP1 PUSH2 0x1C7C JUMP JUMPDEST PUSH1 0x8 SSTORE JUMP JUMPDEST PUSH1 0x12 DUP2 DUP2 SLOAD DUP2 LT PUSH2 0x8D8 JUMPI PUSH1 0x0 DUP1 REVERT JUMPDEST PUSH1 0x0 SWAP2 DUP3 MSTORE PUSH1 0x20 SWAP1 SWAP2 KECCAK256 ADD SLOAD PUSH1 0x1 PUSH1 0x1 PUSH1 0xA0 SHL SUB AND SWAP1 POP DUP2 JUMP JUMPDEST PUSH1 0x4 SLOAD PUSH1 0x0 SWAP1 DUP2 SWAP1 DUP2 SWAP1 DUP2 SWAP1 DUP2 SWAP1 DUP2 SWAP1 DUP1 ISZERO PUSH2 0x97B JUMPI PUSH1 0x0 JUMPDEST DUP2 DUP2 LT ISZERO PUSH2 0x979 JUMPI DUP9 PUSH1 0x1 PUSH1 0x1 PUSH1 0xA0 SHL SUB AND PUSH1 0x4 DUP3 DUP2 SLOAD DUP2 LT PUSH2 0x93E JUMPI PUSH4 0x4E487B71 PUSH1 0xE0 SHL PUSH1 0x0 MSTORE PUSH1 0x32 PUSH1 0x4 MSTORE PUSH1 0x24 PUSH1 0x0 REVERT JUMPDEST PUSH1 0x0 SWAP2 DUP3 MSTORE PUSH1 0x20 SWAP1 SWAP2 KECCAK256 ADD SLOAD PUSH1 0x1 PUSH1 0x1 PUSH1 0xA0 SHL SUB AND EQ ISZERO PUSH2 0x967 JUMPI DUP5 PUSH2 0x963 DUP2 PUSH2 0x1E16 JUMP JUMPDEST SWAP6 POP POP JUMPDEST DUP1 PUSH2 0x971 DUP2 PUSH2 0x1E16 JUMP JUMPDEST SWAP2 POP POP PUSH2 0x90B JUMP JUMPDEST POP JUMPDEST PUSH1 0xB SLOAD DUP1 ISZERO PUSH2 0x9F7 JUMPI PUSH1 0x0 JUMPDEST DUP2 DUP2 LT ISZERO PUSH2 0x9F5 JUMPI DUP10 PUSH1 0x1 PUSH1 0x1 PUSH1 0xA0 SHL SUB AND PUSH1 0xB DUP3 DUP2 SLOAD DUP2 LT PUSH2 0x9BA JUMPI PUSH4 0x4E487B71 PUSH1 0xE0 SHL PUSH1 0x0 MSTORE PUSH1 0x32 PUSH1 0x4 MSTORE PUSH1 0x24 PUSH1 0x0 REVERT JUMPDEST PUSH1 0x0 SWAP2 DUP3 MSTORE PUSH1 0x20 SWAP1 SWAP2 KECCAK256 ADD SLOAD PUSH1 0x1 PUSH1 0x1 PUSH1 0xA0 SHL SUB AND EQ ISZERO PUSH2 0x9E3 JUMPI DUP5 PUSH2 0x9DF DUP2 PUSH2 0x1E16 JUMP JUMPDEST SWAP6 POP POP JUMPDEST DUP1 PUSH2 0x9ED DUP2 PUSH2 0x1E16 JUMP JUMPDEST SWAP2 POP POP PUSH2 0x987 JUMP JUMPDEST POP JUMPDEST PUSH1 0xF SLOAD DUP1 ISZERO PUSH2 0xA73 JUMPI PUSH1 0x0 JUMPDEST DUP2 DUP2 LT ISZERO PUSH2 0xA71 JUMPI DUP11 PUSH1 0x1 PUSH1 0x1 PUSH1 0xA0 SHL SUB AND PUSH1 0xF DUP3 DUP2 SLOAD DUP2 LT PUSH2 0xA36 JUMPI PUSH4 0x4E487B71 PUSH1 0xE0 SHL PUSH1 0x0 MSTORE PUSH1 0x32 PUSH1 0x4 MSTORE PUSH1 0x24 PUSH1 0x0 REVERT JUMPDEST PUSH1 0x0 SWAP2 DUP3 MSTORE PUSH1 0x20 SWAP1 SWAP2 KECCAK256 ADD SLOAD PUSH1 0x1 PUSH1 0x1 PUSH1 0xA0 SHL SUB AND EQ ISZERO PUSH2 0xA5F JUMPI DUP5 PUSH2 0xA5B DUP2 PUSH2 0x1E16 JUMP JUMPDEST SWAP6 POP POP JUMPDEST DUP1 PUSH2 0xA69 DUP2 PUSH2 0x1E16 JUMP JUMPDEST SWAP2 POP POP PUSH2 0xA03 JUMP JUMPDEST POP JUMPDEST POP SWAP4 SWAP9 SWAP3 SWAP8 POP SWAP1 SWAP6 POP SWAP1 SWAP4 POP POP POP POP JUMP JUMPDEST PUSH1 0x5 SLOAD PUSH1 0x1 PUSH1 0x1 PUSH1 0xA0 SHL SUB AND CALLER EQ ISZERO PUSH2 0xAAF JUMPI PUSH1 0x40 MLOAD PUSH3 0x461BCD PUSH1 0xE5 SHL DUP2 MSTORE PUSH1 0x4 ADD PUSH2 0x441 SWAP1 PUSH2 0x1CEE JUMP JUMPDEST PUSH1 0x0 SLOAD PUSH1 0xFF AND ISZERO PUSH2 0xAD2 JUMPI PUSH1 0x40 MLOAD PUSH3 0x461BCD PUSH1 0xE5 SHL DUP2 MSTORE PUSH1 0x4 ADD PUSH2 0x441 SWAP1 PUSH2 0x1CC6 JUMP JUMPDEST PUSH1 0x0 DUP1 SLOAD PUSH1 0xFF NOT AND PUSH1 0x1 OR SWAP1 SSTORE PUSH1 0x10 SLOAD PUSH1 0xFF AND PUSH2 0xB01 JUMPI PUSH1 0x40 MLOAD PUSH3 0x461BCD PUSH1 0xE5 SHL DUP2 MSTORE PUSH1 0x4 ADD PUSH2 0x441 SWAP1 PUSH2 0x1D15 JUMP JUMPDEST PUSH1 0x3 SLOAD DUP2 EQ PUSH2 0xB22 JUMPI PUSH1 0x40 MLOAD PUSH3 0x461BCD PUSH1 0xE5 SHL DUP2 MSTORE PUSH1 0x4 ADD PUSH2 0x441 SWAP1 PUSH2 0x1CA4 JUMP JUMPDEST PUSH1 0x15 SLOAD PUSH1 0x40 MLOAD PUSH4 0x23B872DD PUSH1 0xE0 SHL DUP2 MSTORE CALLER PUSH1 0x4 DUP3 ADD MSTORE ADDRESS PUSH1 0x24 DUP3 ADD MSTORE PUSH1 0x44 DUP2 ADD DUP4 SWAP1 MSTORE PUSH1 0x0 SWAP2 PUSH1 0x1 PUSH1 0x1 PUSH1 0xA0 SHL SUB AND SWAP1 PUSH4 0x23B872DD SWAP1 PUSH1 0x64 ADD PUSH1 0x20 PUSH1 0x40 MLOAD DUP1 DUP4 SUB DUP2 PUSH1 0x0 DUP8 DUP1 EXTCODESIZE ISZERO DUP1 ISZERO PUSH2 0xB75 JUMPI PUSH1 0x0 DUP1 REVERT JUMPDEST POP GAS CALL ISZERO DUP1 ISZERO PUSH2 0xB89 JUMPI RETURNDATASIZE PUSH1 0x0 DUP1 RETURNDATACOPY RETURNDATASIZE PUSH1 0x0 REVERT JUMPDEST POP POP POP POP PUSH1 0x40 MLOAD RETURNDATASIZE PUSH1 0x1F NOT PUSH1 0x1F DUP3 ADD AND DUP3 ADD DUP1 PUSH1 0x40 MSTORE POP DUP2 ADD SWAP1 PUSH2 0xBAD SWAP2 SWAP1 PUSH2 0x1BDF JUMP JUMPDEST SWAP1 POP DUP1 ISZERO PUSH2 0x85C JUMPI PUSH1 0x1 SLOAD PUSH1 0x2 SLOAD LT ISZERO PUSH2 0xC29 JUMPI PUSH1 0x4 DUP1 SLOAD PUSH1 0x1 DUP2 ADD DUP3 SSTORE PUSH1 0x0 SWAP2 DUP3 MSTORE PUSH32 0x8A35ACFBC15FF81A39AE7D344FD709F28E8600B4AA8C65C6B64BFE7FE36BD19B ADD DUP1 SLOAD PUSH1 0x1 PUSH1 0x1 PUSH1 0xA0 SHL SUB NOT AND CALLER OR SWAP1 SSTORE PUSH1 0x2 DUP1 SLOAD SWAP2 PUSH2 0xC10 DUP4 PUSH2 0x1E16 JUMP JUMPDEST SWAP2 SWAP1 POP SSTORE POP PUSH1 0x1 SLOAD PUSH1 0x2 SLOAD EQ ISZERO PUSH2 0x843 JUMPI PUSH2 0x843 PUSH2 0x185B JUMP JUMPDEST PUSH1 0x1 SLOAD PUSH1 0x2 SLOAD EQ ISZERO PUSH2 0x85C JUMPI PUSH2 0x85C PUSH2 0x185B JUMP JUMPDEST PUSH1 0x13 DUP2 DUP2 SLOAD DUP2 LT PUSH2 0x8D8 JUMPI PUSH1 0x0 DUP1 REVERT JUMPDEST PUSH1 0x40 DUP1 MLOAD PUSH1 0x11 DUP1 DUP3 MSTORE PUSH2 0x240 DUP3 ADD SWAP1 SWAP3 MSTORE PUSH1 0x60 SWAP2 PUSH1 0x0 SWAP2 SWAP1 PUSH1 0x20 DUP3 ADD PUSH2 0x220 DUP1 CALLDATASIZE DUP4 CALLDATACOPY ADD SWAP1 POP POP PUSH1 0x11 SLOAD DUP2 MLOAD SWAP2 SWAP3 POP SWAP1 PUSH1 0x0 PUSH1 0xA DUP4 GT ISZERO PUSH2 0xD32 JUMPI DUP3 JUMPDEST PUSH2 0xC95 PUSH1 0xA DUP6 PUSH2 0x1DE8 JUMP JUMPDEST DUP2 GT ISZERO PUSH2 0x539 JUMPI DUP3 PUSH2 0xCA6 DUP2 PUSH2 0x1E16 JUMP JUMPDEST SWAP4 POP POP PUSH1 0x11 DUP2 DUP2 SLOAD DUP2 LT PUSH2 0xCCA JUMPI PUSH4 0x4E487B71 PUSH1 0xE0 SHL PUSH1 0x0 MSTORE PUSH1 0x32 PUSH1 0x4 MSTORE PUSH1 0x24 PUSH1 0x0 REVERT JUMPDEST SWAP1 PUSH1 0x0 MSTORE PUSH1 0x20 PUSH1 0x0 KECCAK256 ADD PUSH1 0x0 SWAP1 SLOAD SWAP1 PUSH2 0x100 EXP SWAP1 DIV PUSH1 0x1 PUSH1 0x1 PUSH1 0xA0 SHL SUB AND DUP6 DUP5 DUP2 MLOAD DUP2 LT PUSH2 0xD08 JUMPI PUSH4 0x4E487B71 PUSH1 0xE0 SHL PUSH1 0x0 MSTORE PUSH1 0x32 PUSH1 0x4 MSTORE PUSH1 0x24 PUSH1 0x0 REVERT JUMPDEST PUSH1 0x1 PUSH1 0x1 PUSH1 0xA0 SHL SUB SWAP1 SWAP3 AND PUSH1 0x20 SWAP3 DUP4 MUL SWAP2 SWAP1 SWAP2 ADD SWAP1 SWAP2 ADD MSTORE DUP1 PUSH2 0xD2A DUP2 PUSH2 0x1DFF JUMP JUMPDEST SWAP2 POP POP PUSH2 0xC8A JUMP JUMPDEST DUP3 JUMPDEST DUP1 ISZERO PUSH2 0x5FC JUMPI DUP3 PUSH2 0xD44 DUP2 PUSH2 0x1E16 JUMP JUMPDEST SWAP4 POP PUSH1 0x0 SWAP1 POP PUSH1 0x11 PUSH2 0xD57 PUSH1 0x1 DUP5 PUSH2 0x1DE8 JUMP JUMPDEST DUP2 SLOAD DUP2 LT PUSH2 0xD75 JUMPI PUSH4 0x4E487B71 PUSH1 0xE0 SHL PUSH1 0x0 MSTORE PUSH1 0x32 PUSH1 0x4 MSTORE PUSH1 0x24 PUSH1 0x0 REVERT JUMPDEST SWAP1 PUSH1 0x0 MSTORE PUSH1 0x20 PUSH1 0x0 KECCAK256 ADD PUSH1 0x0 SWAP1 SLOAD SWAP1 PUSH2 0x100 EXP SWAP1 DIV PUSH1 0x1 PUSH1 0x1 PUSH1 0xA0 SHL SUB AND SWAP1 POP DUP1 DUP7 DUP5 DUP2 MLOAD DUP2 LT PUSH2 0xDB6 JUMPI PUSH4 0x4E487B71 PUSH1 0xE0 SHL PUSH1 0x0 MSTORE PUSH1 0x32 PUSH1 0x4 MSTORE PUSH1 0x24 PUSH1 0x0 REVERT JUMPDEST PUSH1 0x1 PUSH1 0x1 PUSH1 0xA0 SHL SUB SWAP1 SWAP3 AND PUSH1 0x20 SWAP3 DUP4 MUL SWAP2 SWAP1 SWAP2 ADD SWAP1 SWAP2 ADD MSTORE DUP3 PUSH2 0xDD8 DUP2 PUSH2 0x1E16 JUMP JUMPDEST SWAP4 POP POP POP DUP1 DUP1 PUSH2 0xDE7 SWAP1 PUSH2 0x1DFF JUMP JUMPDEST SWAP2 POP POP PUSH2 0xD34 JUMP JUMPDEST PUSH1 0x15 SLOAD PUSH1 0x40 MLOAD PUSH4 0x70A08231 PUSH1 0xE0 SHL DUP2 MSTORE ADDRESS PUSH1 0x4 DUP3 ADD MSTORE PUSH1 0x0 SWAP2 PUSH1 0x1 PUSH1 0x1 PUSH1 0xA0 SHL SUB AND SWAP1 PUSH4 0x70A08231 SWAP1 PUSH1 0x24 ADD PUSH1 0x20 PUSH1 0x40 MLOAD DUP1 DUP4 SUB DUP2 DUP7 DUP1 EXTCODESIZE ISZERO DUP1 ISZERO PUSH2 0xE33 JUMPI PUSH1 0x0 DUP1 REVERT JUMPDEST POP GAS STATICCALL ISZERO DUP1 ISZERO PUSH2 0xE47 JUMPI RETURNDATASIZE PUSH1 0x0 DUP1 RETURNDATACOPY RETURNDATASIZE PUSH1 0x0 REVERT JUMPDEST POP POP POP POP PUSH1 0x40 MLOAD RETURNDATASIZE PUSH1 0x1F NOT PUSH1 0x1F DUP3 ADD AND DUP3 ADD DUP1 PUSH1 0x40 MSTORE POP DUP2 ADD SWAP1 PUSH2 0xE6B SWAP2 SWAP1 PUSH2 0x1C17 JUMP JUMPDEST SWAP1 POP SWAP1 JUMP JUMPDEST PUSH1 0x5 SLOAD PUSH1 0x1 PUSH1 0x1 PUSH1 0xA0 SHL SUB AND CALLER EQ PUSH2 0xE9A JUMPI PUSH1 0x40 MLOAD PUSH3 0x461BCD PUSH1 0xE5 SHL DUP2 MSTORE PUSH1 0x4 ADD PUSH2 0x441 SWAP1 PUSH2 0x1C7C JUMP JUMPDEST PUSH2 0x452 PUSH2 0x159E JUMP JUMPDEST PUSH1 0x5 SLOAD PUSH1 0x1 PUSH1 0x1 PUSH1 0xA0 SHL SUB AND CALLER EQ ISZERO PUSH2 0xECD JUMPI PUSH1 0x40 MLOAD PUSH3 0x461BCD PUSH1 0xE5 SHL DUP2 MSTORE PUSH1 0x4 ADD PUSH2 0x441 SWAP1 PUSH2 0x1CEE JUMP JUMPDEST PUSH1 0x0 SLOAD PUSH1 0xFF AND ISZERO PUSH2 0xEF0 JUMPI PUSH1 0x40 MLOAD PUSH3 0x461BCD PUSH1 0xE5 SHL DUP2 MSTORE PUSH1 0x4 ADD PUSH2 0x441 SWAP1 PUSH2 0x1CC6 JUMP JUMPDEST PUSH1 0x0 DUP1 SLOAD PUSH1 0xFF NOT AND PUSH1 0x1 OR SWAP1 SSTORE PUSH1 0x10 SLOAD PUSH1 0xFF AND PUSH2 0xF1F JUMPI PUSH1 0x40 MLOAD PUSH3 0x461BCD PUSH1 0xE5 SHL DUP2 MSTORE PUSH1 0x4 ADD PUSH2 0x441 SWAP1 PUSH2 0x1D15 JUMP JUMPDEST PUSH1 0xA SLOAD PUSH1 0x40 DUP1 MLOAD DUP4 DUP2 MSTORE PUSH1 0x20 DUP2 ADD SWAP3 SWAP1 SWAP3 MSTORE PUSH32 0xA3DE883741AEFA0083D54DE95483572AD5EAA074B33A0AE8DC98725D52CF8143 SWAP2 ADD PUSH1 0x40 MLOAD DUP1 SWAP2 SUB SWAP1 LOG1 PUSH1 0xA SLOAD DUP2 EQ PUSH2 0xF7D JUMPI PUSH1 0x40 MLOAD PUSH3 0x461BCD PUSH1 0xE5 SHL DUP2 MSTORE PUSH1 0x4 ADD PUSH2 0x441 SWAP1 PUSH2 0x1CA4 JUMP JUMPDEST PUSH1 0x15 SLOAD PUSH1 0x40 MLOAD PUSH4 0x23B872DD PUSH1 0xE0 SHL DUP2 MSTORE CALLER PUSH1 0x4 DUP3 ADD MSTORE ADDRESS PUSH1 0x24 DUP3 ADD MSTORE PUSH1 0x44 DUP2 ADD DUP4 SWAP1 MSTORE PUSH1 0x0 SWAP2 PUSH1 0x1 PUSH1 0x1 PUSH1 0xA0 SHL SUB AND SWAP1 PUSH4 0x23B872DD SWAP1 PUSH1 0x64 ADD PUSH1 0x20 PUSH1 0x40 MLOAD DUP1 DUP4 SUB DUP2 PUSH1 0x0 DUP8 DUP1 EXTCODESIZE ISZERO DUP1 ISZERO PUSH2 0xFD0 JUMPI PUSH1 0x0 DUP1 REVERT JUMPDEST POP GAS CALL ISZERO DUP1 ISZERO PUSH2 0xFE4 JUMPI RETURNDATASIZE PUSH1 0x0 DUP1 RETURNDATACOPY RETURNDATASIZE PUSH1 0x0 REVERT JUMPDEST POP POP POP POP PUSH1 0x40 MLOAD RETURNDATASIZE PUSH1 0x1F NOT PUSH1 0x1F DUP3 ADD AND DUP3 ADD DUP1 PUSH1 0x40 MSTORE POP DUP2 ADD SWAP1 PUSH2 0x1008 SWAP2 SWAP1 PUSH2 0x1BDF JUMP JUMPDEST SWAP1 POP DUP1 ISZERO PUSH2 0x85C JUMPI PUSH1 0x8 SLOAD PUSH1 0x9 SLOAD LT ISZERO PUSH2 0x1084 JUMPI PUSH1 0xB DUP1 SLOAD PUSH1 0x1 DUP2 ADD DUP3 SSTORE PUSH1 0x0 SWAP2 DUP3 MSTORE PUSH32 0x175B7A638427703F0DBE7BB9BBF987A2551717B34E79F33B5B1008D1FA01DB9 ADD DUP1 SLOAD PUSH1 0x1 PUSH1 0x1 PUSH1 0xA0 SHL SUB NOT AND CALLER OR SWAP1 SSTORE PUSH1 0x9 DUP1 SLOAD SWAP2 PUSH2 0x106B DUP4 PUSH2 0x1E16 JUMP JUMPDEST SWAP2 SWAP1 POP SSTORE POP PUSH1 0x8 SLOAD PUSH1 0x9 SLOAD EQ ISZERO PUSH2 0x843 JUMPI PUSH2 0x843 PUSH2 0x12DA JUMP JUMPDEST PUSH1 0x8 SLOAD PUSH1 0x9 SLOAD EQ ISZERO PUSH2 0x85C JUMPI PUSH2 0x85C PUSH2 0x12DA JUMP JUMPDEST PUSH1 0x40 DUP1 MLOAD PUSH1 0x11 DUP1 DUP3 MSTORE PUSH2 0x240 DUP3 ADD SWAP1 SWAP3 MSTORE PUSH1 0x60 SWAP2 PUSH1 0x0 SWAP2 SWAP1 PUSH1 0x20 DUP3 ADD PUSH2 0x220 DUP1 CALLDATASIZE DUP4 CALLDATACOPY ADD SWAP1 POP POP PUSH1 0x12 SLOAD DUP2 MLOAD SWAP2 SWAP3 POP SWAP1 PUSH1 0x0 PUSH1 0xA DUP4 GT ISZERO PUSH2 0x117D JUMPI DUP3 JUMPDEST PUSH2 0x10E0 PUSH1 0xA DUP6 PUSH2 0x1DE8 JUMP JUMPDEST DUP2 GT ISZERO PUSH2 0x539 JUMPI DUP3 PUSH2 0x10F1 DUP2 PUSH2 0x1E16 JUMP JUMPDEST SWAP4 POP POP PUSH1 0x12 DUP2 DUP2 SLOAD DUP2 LT PUSH2 0x1115 JUMPI PUSH4 0x4E487B71 PUSH1 0xE0 SHL PUSH1 0x0 MSTORE PUSH1 0x32 PUSH1 0x4 MSTORE PUSH1 0x24 PUSH1 0x0 REVERT JUMPDEST SWAP1 PUSH1 0x0 MSTORE PUSH1 0x20 PUSH1 0x0 KECCAK256 ADD PUSH1 0x0 SWAP1 SLOAD SWAP1 PUSH2 0x100 EXP SWAP1 DIV PUSH1 0x1 PUSH1 0x1 PUSH1 0xA0 SHL SUB AND DUP6 DUP5 DUP2 MLOAD DUP2 LT PUSH2 0x1153 JUMPI PUSH4 0x4E487B71 PUSH1 0xE0 SHL PUSH1 0x0 MSTORE PUSH1 0x32 PUSH1 0x4 MSTORE PUSH1 0x24 PUSH1 0x0 REVERT JUMPDEST PUSH1 0x1 PUSH1 0x1 PUSH1 0xA0 SHL SUB SWAP1 SWAP3 AND PUSH1 0x20 SWAP3 DUP4 MUL SWAP2 SWAP1 SWAP2 ADD SWAP1 SWAP2 ADD MSTORE DUP1 PUSH2 0x1175 DUP2 PUSH2 0x1DFF JUMP JUMPDEST SWAP2 POP POP PUSH2 0x10D5 JUMP JUMPDEST DUP3 JUMPDEST DUP1 ISZERO PUSH2 0x5FC JUMPI DUP3 PUSH2 0x118F DUP2 PUSH2 0x1E16 JUMP JUMPDEST SWAP4 POP PUSH1 0x0 SWAP1 POP PUSH1 0x12 PUSH2 0x11A2 PUSH1 0x1 DUP5 PUSH2 0x1DE8 JUMP JUMPDEST DUP2 SLOAD DUP2 LT PUSH2 0x11C0 JUMPI PUSH4 0x4E487B71 PUSH1 0xE0 SHL PUSH1 0x0 MSTORE PUSH1 0x32 PUSH1 0x4 MSTORE PUSH1 0x24 PUSH1 0x0 REVERT JUMPDEST SWAP1 PUSH1 0x0 MSTORE PUSH1 0x20 PUSH1 0x0 KECCAK256 ADD PUSH1 0x0 SWAP1 SLOAD SWAP1 PUSH2 0x100 EXP SWAP1 DIV PUSH1 0x1 PUSH1 0x1 PUSH1 0xA0 SHL SUB AND SWAP1 POP DUP1 DUP7 DUP5 DUP2 MLOAD DUP2 LT PUSH2 0x1201 JUMPI PUSH4 0x4E487B71 PUSH1 0xE0 SHL PUSH1 0x0 MSTORE PUSH1 0x32 PUSH1 0x4 MSTORE PUSH1 0x24 PUSH1 0x0 REVERT JUMPDEST PUSH1 0x1 PUSH1 0x1 PUSH1 0xA0 SHL SUB SWAP1 SWAP3 AND PUSH1 0x20 SWAP3 DUP4 MUL SWAP2 SWAP1 SWAP2 ADD SWAP1 SWAP2 ADD MSTORE DUP3 PUSH2 0x1223 DUP2 PUSH2 0x1E16 JUMP JUMPDEST SWAP4 POP POP POP DUP1 DUP1 PUSH2 0x1232 SWAP1 PUSH2 0x1DFF JUMP JUMPDEST SWAP2 POP POP PUSH2 0x117F JUMP JUMPDEST PUSH1 0x5 SLOAD PUSH1 0x1 PUSH1 0x1 PUSH1 0xA0 SHL SUB AND CALLER EQ PUSH2 0x1264 JUMPI PUSH1 0x40 MLOAD PUSH3 0x461BCD PUSH1 0xE5 SHL DUP2 MSTORE PUSH1 0x4 ADD PUSH2 0x441 SWAP1 PUSH2 0x1C7C JUMP JUMPDEST PUSH1 0xA SSTORE JUMP JUMPDEST PUSH1 0x5 SLOAD PUSH1 0x1 PUSH1 0x1 PUSH1 0xA0 SHL SUB AND CALLER EQ PUSH2 0x1293 JUMPI PUSH1 0x40 MLOAD PUSH3 0x461BCD PUSH1 0xE5 SHL DUP2 MSTORE PUSH1 0x4 ADD PUSH2 0x441 SWAP1 PUSH2 0x1C7C JUMP JUMPDEST PUSH1 0xE SSTORE JUMP JUMPDEST PUSH1 0x11 DUP2 DUP2 SLOAD DUP2 LT PUSH2 0x8D8 JUMPI PUSH1 0x0 DUP1 REVERT JUMPDEST PUSH1 0x5 SLOAD PUSH1 0x1 PUSH1 0x1 PUSH1 0xA0 SHL SUB AND CALLER EQ PUSH2 0x12D2 JUMPI PUSH1 0x40 MLOAD PUSH3 0x461BCD PUSH1 0xE5 SHL DUP2 MSTORE PUSH1 0x4 ADD PUSH2 0x441 SWAP1 PUSH2 0x1C7C JUMP JUMPDEST PUSH2 0x452 PUSH2 0x185B JUMP JUMPDEST PUSH1 0xB SLOAD PUSH1 0x0 SWAP1 PUSH2 0x12E8 PUSH2 0x1B1B JUMP JUMPDEST PUSH2 0x12F2 SWAP2 SWAP1 PUSH2 0x1E31 JUMP JUMPDEST PUSH1 0xB SLOAD PUSH1 0xA SLOAD SWAP2 SWAP3 POP PUSH1 0x0 SWAP2 PUSH2 0x1308 SWAP2 SWAP1 PUSH2 0x1DC9 JUMP JUMPDEST SWAP1 POP PUSH1 0x0 PUSH2 0x1321 PUSH2 0x131A DUP4 PUSH1 0x1A PUSH2 0x1B53 JUMP JUMPDEST PUSH1 0x64 PUSH2 0x1B66 JUMP JUMPDEST SWAP1 POP PUSH1 0x0 PUSH2 0x1333 PUSH2 0x131A DUP5 PUSH1 0x4 PUSH2 0x1B53 JUMP JUMPDEST PUSH1 0x15 SLOAD PUSH1 0x6 SLOAD PUSH1 0x40 MLOAD PUSH4 0xA9059CBB PUSH1 0xE0 SHL DUP2 MSTORE PUSH1 0x1 PUSH1 0x1 PUSH1 0xA0 SHL SUB SWAP2 DUP3 AND PUSH1 0x4 DUP3 ADD MSTORE PUSH1 0x24 DUP2 ADD DUP7 SWAP1 MSTORE SWAP3 SWAP4 POP AND SWAP1 PUSH4 0xA9059CBB SWAP1 PUSH1 0x44 ADD PUSH1 0x20 PUSH1 0x40 MLOAD DUP1 DUP4 SUB DUP2 PUSH1 0x0 DUP8 DUP1 EXTCODESIZE ISZERO DUP1 ISZERO PUSH2 0x1385 JUMPI PUSH1 0x0 DUP1 REVERT JUMPDEST POP GAS CALL ISZERO DUP1 ISZERO PUSH2 0x1399 JUMPI RETURNDATASIZE PUSH1 0x0 DUP1 RETURNDATACOPY RETURNDATASIZE PUSH1 0x0 REVERT JUMPDEST POP POP POP POP PUSH1 0x40 MLOAD RETURNDATASIZE PUSH1 0x1F NOT PUSH1 0x1F DUP3 ADD AND DUP3 ADD DUP1 PUSH1 0x40 MSTORE POP DUP2 ADD SWAP1 PUSH2 0x13BD SWAP2 SWAP1 PUSH2 0x1BDF JUMP JUMPDEST POP PUSH1 0x0 PUSH2 0x13CA DUP5 DUP5 PUSH2 0x1B72 JUMP JUMPDEST SWAP1 POP PUSH2 0x13D6 DUP3 DUP3 PUSH2 0x1DE8 JUMP JUMPDEST PUSH1 0x15 SLOAD PUSH1 0x7 SLOAD PUSH1 0x40 MLOAD PUSH4 0xA9059CBB PUSH1 0xE0 SHL DUP2 MSTORE PUSH1 0x1 PUSH1 0x1 PUSH1 0xA0 SHL SUB SWAP2 DUP3 AND PUSH1 0x4 DUP3 ADD MSTORE PUSH1 0x24 DUP2 ADD DUP7 SWAP1 MSTORE SWAP3 SWAP4 POP AND SWAP1 PUSH4 0xA9059CBB SWAP1 PUSH1 0x44 ADD PUSH1 0x20 PUSH1 0x40 MLOAD DUP1 DUP4 SUB DUP2 PUSH1 0x0 DUP8 DUP1 EXTCODESIZE ISZERO DUP1 ISZERO PUSH2 0x1428 JUMPI PUSH1 0x0 DUP1 REVERT JUMPDEST POP GAS CALL ISZERO DUP1 ISZERO PUSH2 0x143C JUMPI RETURNDATASIZE PUSH1 0x0 DUP1 RETURNDATACOPY RETURNDATASIZE PUSH1 0x0 REVERT JUMPDEST POP POP POP POP PUSH1 0x40 MLOAD RETURNDATASIZE PUSH1 0x1F NOT PUSH1 0x1F DUP3 ADD AND DUP3 ADD DUP1 PUSH1 0x40 MSTORE POP DUP2 ADD SWAP1 PUSH2 0x1460 SWAP2 SWAP1 PUSH2 0x1BDF JUMP JUMPDEST POP PUSH1 0x15 SLOAD PUSH1 0xB DUP1 SLOAD PUSH1 0x1 PUSH1 0x1 PUSH1 0xA0 SHL SUB SWAP1 SWAP3 AND SWAP2 PUSH4 0xA9059CBB SWAP2 SWAP1 DUP9 SWAP1 DUP2 LT PUSH2 0x1499 JUMPI PUSH4 0x4E487B71 PUSH1 0xE0 SHL PUSH1 0x0 MSTORE PUSH1 0x32 PUSH1 0x4 MSTORE PUSH1 0x24 PUSH1 0x0 REVERT JUMPDEST PUSH1 0x0 SWAP2 DUP3 MSTORE PUSH1 0x20 SWAP1 SWAP2 KECCAK256 ADD SLOAD PUSH1 0x40 MLOAD PUSH1 0xE0 DUP4 SWAP1 SHL PUSH1 0x1 PUSH1 0x1 PUSH1 0xE0 SHL SUB NOT AND DUP2 MSTORE PUSH1 0x1 PUSH1 0x1 PUSH1 0xA0 SHL SUB SWAP1 SWAP2 AND PUSH1 0x4 DUP3 ADD MSTORE PUSH1 0x24 DUP2 ADD DUP5 SWAP1 MSTORE PUSH1 0x44 ADD PUSH1 0x20 PUSH1 0x40 MLOAD DUP1 DUP4 SUB DUP2 PUSH1 0x0 DUP8 DUP1 EXTCODESIZE ISZERO DUP1 ISZERO PUSH2 0x14ED JUMPI PUSH1 0x0 DUP1 REVERT JUMPDEST POP GAS CALL ISZERO DUP1 ISZERO PUSH2 0x1501 JUMPI RETURNDATASIZE PUSH1 0x0 DUP1 RETURNDATACOPY RETURNDATASIZE PUSH1 0x0 REVERT JUMPDEST POP POP POP POP PUSH1 0x40 MLOAD RETURNDATASIZE PUSH1 0x1F NOT PUSH1 0x1F DUP3 ADD AND DUP3 ADD DUP1 PUSH1 0x40 MSTORE POP DUP2 ADD SWAP1 PUSH2 0x1525 SWAP2 SWAP1 PUSH2 0x1BDF JUMP JUMPDEST POP PUSH1 0x12 PUSH1 0xB DUP7 DUP2 SLOAD DUP2 LT PUSH2 0x1549 JUMPI PUSH4 0x4E487B71 PUSH1 0xE0 SHL PUSH1 0x0 MSTORE PUSH1 0x32 PUSH1 0x4 MSTORE PUSH1 0x24 PUSH1 0x0 REVERT JUMPDEST PUSH1 0x0 SWAP2 DUP3 MSTORE PUSH1 0x20 DUP1 DUP4 KECCAK256 SWAP1 SWAP2 ADD SLOAD DUP4 SLOAD PUSH1 0x1 DUP2 ADD DUP6 SSTORE SWAP4 DUP4 MSTORE SWAP1 DUP3 KECCAK256 SWAP1 SWAP3 ADD DUP1 SLOAD PUSH1 0x1 PUSH1 0x1 PUSH1 0xA0 SHL SUB NOT AND PUSH1 0x1 PUSH1 0x1 PUSH1 0xA0 SHL SUB SWAP1 SWAP4 AND SWAP3 SWAP1 SWAP3 OR SWAP1 SWAP2 SSTORE PUSH2 0x1592 SWAP1 PUSH1 0xB SWAP1 PUSH2 0x1B7E JUMP JUMPDEST POP POP PUSH1 0x0 PUSH1 0x9 SSTORE POP POP POP JUMP JUMPDEST PUSH1 0xF SLOAD PUSH1 0x0 SWAP1 PUSH2 0x15AC PUSH2 0x1B1B JUMP JUMPDEST PUSH2 0x15B6 SWAP2 SWAP1 PUSH2 0x1E31 JUMP JUMPDEST PUSH1 0xF SLOAD PUSH1 0xE SLOAD SWAP2 SWAP3 POP PUSH1 0x0 SWAP2 PUSH2 0x15CC SWAP2 SWAP1 PUSH2 0x1DC9 JUMP JUMPDEST SWAP1 POP PUSH1 0x0 PUSH2 0x15DE PUSH2 0x131A DUP4 PUSH1 0x1A PUSH2 0x1B53 JUMP JUMPDEST SWAP1 POP PUSH1 0x0 PUSH2 0x15F0 PUSH2 0x131A DUP5 PUSH1 0x4 PUSH2 0x1B53 JUMP JUMPDEST PUSH1 0x15 SLOAD PUSH1 0x6 SLOAD PUSH1 0x40 MLOAD PUSH4 0xA9059CBB PUSH1 0xE0 SHL DUP2 MSTORE PUSH1 0x1 PUSH1 0x1 PUSH1 0xA0 SHL SUB SWAP2 DUP3 AND PUSH1 0x4 DUP3 ADD MSTORE PUSH1 0x24 DUP2 ADD DUP7 SWAP1 MSTORE SWAP3 SWAP4 POP AND SWAP1 PUSH4 0xA9059CBB SWAP1 PUSH1 0x44 ADD PUSH1 0x20 PUSH1 0x40 MLOAD DUP1 DUP4 SUB DUP2 PUSH1 0x0 DUP8 DUP1 EXTCODESIZE ISZERO DUP1 ISZERO PUSH2 0x1642 JUMPI PUSH1 0x0 DUP1 REVERT JUMPDEST POP GAS CALL ISZERO DUP1 ISZERO PUSH2 0x1656 JUMPI RETURNDATASIZE PUSH1 0x0 DUP1 RETURNDATACOPY RETURNDATASIZE PUSH1 0x0 REVERT JUMPDEST POP POP POP POP PUSH1 0x40 MLOAD RETURNDATASIZE PUSH1 0x1F NOT PUSH1 0x1F DUP3 ADD AND DUP3 ADD DUP1 PUSH1 0x40 MSTORE POP DUP2 ADD SWAP1 PUSH2 0x167A SWAP2 SWAP1 PUSH2 0x1BDF JUMP JUMPDEST POP PUSH1 0x0 PUSH2 0x1687 DUP5 DUP5 PUSH2 0x1B72 JUMP JUMPDEST SWAP1 POP PUSH2 0x1693 DUP3 DUP3 PUSH2 0x1DE8 JUMP JUMPDEST PUSH1 0x15 SLOAD PUSH1 0x7 SLOAD PUSH1 0x40 MLOAD PUSH4 0xA9059CBB PUSH1 0xE0 SHL DUP2 MSTORE PUSH1 0x1 PUSH1 0x1 PUSH1 0xA0 SHL SUB SWAP2 DUP3 AND PUSH1 0x4 DUP3 ADD MSTORE PUSH1 0x24 DUP2 ADD DUP7 SWAP1 MSTORE SWAP3 SWAP4 POP AND SWAP1 PUSH4 0xA9059CBB SWAP1 PUSH1 0x44 ADD PUSH1 0x20 PUSH1 0x40 MLOAD DUP1 DUP4 SUB DUP2 PUSH1 0x0 DUP8 DUP1 EXTCODESIZE ISZERO DUP1 ISZERO PUSH2 0x16E5 JUMPI PUSH1 0x0 DUP1 REVERT JUMPDEST POP GAS CALL ISZERO DUP1 ISZERO PUSH2 0x16F9 JUMPI RETURNDATASIZE PUSH1 0x0 DUP1 RETURNDATACOPY RETURNDATASIZE PUSH1 0x0 REVERT JUMPDEST POP POP POP POP PUSH1 0x40 MLOAD RETURNDATASIZE PUSH1 0x1F NOT PUSH1 0x1F DUP3 ADD AND DUP3 ADD DUP1 PUSH1 0x40 MSTORE POP DUP2 ADD SWAP1 PUSH2 0x171D SWAP2 SWAP1 PUSH2 0x1BDF JUMP JUMPDEST POP PUSH1 0x15 SLOAD PUSH1 0xF DUP1 SLOAD PUSH1 0x1 PUSH1 0x1 PUSH1 0xA0 SHL SUB SWAP1 SWAP3 AND SWAP2 PUSH4 0xA9059CBB SWAP2 SWAP1 DUP9 SWAP1 DUP2 LT PUSH2 0x1756 JUMPI PUSH4 0x4E487B71 PUSH1 0xE0 SHL PUSH1 0x0 MSTORE PUSH1 0x32 PUSH1 0x4 MSTORE PUSH1 0x24 PUSH1 0x0 REVERT JUMPDEST PUSH1 0x0 SWAP2 DUP3 MSTORE PUSH1 0x20 SWAP1 SWAP2 KECCAK256 ADD SLOAD PUSH1 0x40 MLOAD PUSH1 0xE0 DUP4 SWAP1 SHL PUSH1 0x1 PUSH1 0x1 PUSH1 0xE0 SHL SUB NOT AND DUP2 MSTORE PUSH1 0x1 PUSH1 0x1 PUSH1 0xA0 SHL SUB SWAP1 SWAP2 AND PUSH1 0x4 DUP3 ADD MSTORE PUSH1 0x24 DUP2 ADD DUP5 SWAP1 MSTORE PUSH1 0x44 ADD PUSH1 0x20 PUSH1 0x40 MLOAD DUP1 DUP4 SUB DUP2 PUSH1 0x0 DUP8 DUP1 EXTCODESIZE ISZERO DUP1 ISZERO PUSH2 0x17AA JUMPI PUSH1 0x0 DUP1 REVERT JUMPDEST POP GAS CALL ISZERO DUP1 ISZERO PUSH2 0x17BE JUMPI RETURNDATASIZE PUSH1 0x0 DUP1 RETURNDATACOPY RETURNDATASIZE PUSH1 0x0 REVERT JUMPDEST POP POP POP POP PUSH1 0x40 MLOAD RETURNDATASIZE PUSH1 0x1F NOT PUSH1 0x1F DUP3 ADD AND DUP3 ADD DUP1 PUSH1 0x40 MSTORE POP DUP2 ADD SWAP1 PUSH2 0x17E2 SWAP2 SWAP1 PUSH2 0x1BDF JUMP JUMPDEST POP PUSH1 0x13 PUSH1 0xF DUP7 DUP2 SLOAD DUP2 LT PUSH2 0x1806 JUMPI PUSH4 0x4E487B71 PUSH1 0xE0 SHL PUSH1 0x0 MSTORE PUSH1 0x32 PUSH1 0x4 MSTORE PUSH1 0x24 PUSH1 0x0 REVERT JUMPDEST PUSH1 0x0 SWAP2 DUP3 MSTORE PUSH1 0x20 DUP1 DUP4 KECCAK256 SWAP1 SWAP2 ADD SLOAD DUP4 SLOAD PUSH1 0x1 DUP2 ADD DUP6 SSTORE SWAP4 DUP4 MSTORE SWAP1 DUP3 KECCAK256 SWAP1 SWAP3 ADD DUP1 SLOAD PUSH1 0x1 PUSH1 0x1 PUSH1 0xA0 SHL SUB NOT AND PUSH1 0x1 PUSH1 0x1 PUSH1 0xA0 SHL SUB SWAP1 SWAP4 AND SWAP3 SWAP1 SWAP3 OR SWAP1 SWAP2 SSTORE PUSH2 0x184F SWAP1 PUSH1 0xF SWAP1 PUSH2 0x1B7E JUMP JUMPDEST POP POP PUSH1 0x0 PUSH1 0xD SSTORE POP POP POP JUMP JUMPDEST PUSH1 0x4 SLOAD PUSH1 0x0 SWAP1 PUSH2 0x1869 PUSH2 0x1B1B JUMP JUMPDEST PUSH2 0x1873 SWAP2 SWAP1 PUSH2 0x1E31 JUMP JUMPDEST PUSH1 0x4 SLOAD PUSH1 0x3 SLOAD SWAP2 SWAP3 POP SWAP1 PUSH1 0x0 SWAP1 PUSH2 0x188B SWAP1 DUP4 SWAP1 PUSH2 0x1DC9 JUMP JUMPDEST SWAP1 POP PUSH1 0x0 PUSH2 0x189D PUSH2 0x131A DUP4 PUSH1 0x1A PUSH2 0x1B53 JUMP JUMPDEST SWAP1 POP PUSH1 0x0 PUSH2 0x18AF PUSH2 0x131A DUP5 PUSH1 0x4 PUSH2 0x1B53 JUMP JUMPDEST PUSH1 0x15 SLOAD PUSH1 0x6 SLOAD PUSH1 0x40 MLOAD PUSH4 0xA9059CBB PUSH1 0xE0 SHL DUP2 MSTORE PUSH1 0x1 PUSH1 0x1 PUSH1 0xA0 SHL SUB SWAP2 DUP3 AND PUSH1 0x4 DUP3 ADD MSTORE PUSH1 0x24 DUP2 ADD DUP7 SWAP1 MSTORE SWAP3 SWAP4 POP AND SWAP1 PUSH4 0xA9059CBB SWAP1 PUSH1 0x44 ADD PUSH1 0x20 PUSH1 0x40 MLOAD DUP1 DUP4 SUB DUP2 PUSH1 0x0 DUP8 DUP1 EXTCODESIZE ISZERO DUP1 ISZERO PUSH2 0x1901 JUMPI PUSH1 0x0 DUP1 REVERT JUMPDEST POP GAS CALL ISZERO DUP1 ISZERO PUSH2 0x1915 JUMPI RETURNDATASIZE PUSH1 0x0 DUP1 RETURNDATACOPY RETURNDATASIZE PUSH1 0x0 REVERT JUMPDEST POP POP POP POP PUSH1 0x40 MLOAD RETURNDATASIZE PUSH1 0x1F NOT PUSH1 0x1F DUP3 ADD AND DUP3 ADD DUP1 PUSH1 0x40 MSTORE POP DUP2 ADD SWAP1 PUSH2 0x1939 SWAP2 SWAP1 PUSH2 0x1BDF JUMP JUMPDEST POP PUSH1 0x0 PUSH2 0x1946 DUP5 DUP5 PUSH2 0x1B72 JUMP JUMPDEST SWAP1 POP PUSH2 0x1952 DUP3 DUP3 PUSH2 0x1DE8 JUMP JUMPDEST PUSH1 0x15 SLOAD PUSH1 0x7 SLOAD PUSH1 0x40 MLOAD PUSH4 0xA9059CBB PUSH1 0xE0 SHL DUP2 MSTORE PUSH1 0x1 PUSH1 0x1 PUSH1 0xA0 SHL SUB SWAP2 DUP3 AND PUSH1 0x4 DUP3 ADD MSTORE PUSH1 0x24 DUP2 ADD DUP7 SWAP1 MSTORE SWAP3 SWAP4 POP AND SWAP1 PUSH4 0xA9059CBB SWAP1 PUSH1 0x44 ADD PUSH1 0x20 PUSH1 0x40 MLOAD DUP1 DUP4 SUB DUP2 PUSH1 0x0 DUP8 DUP1 EXTCODESIZE ISZERO DUP1 ISZERO PUSH2 0x19A4 JUMPI PUSH1 0x0 DUP1 REVERT JUMPDEST POP GAS CALL ISZERO DUP1 ISZERO PUSH2 0x19B8 JUMPI RETURNDATASIZE PUSH1 0x0 DUP1 RETURNDATACOPY RETURNDATASIZE PUSH1 0x0 REVERT JUMPDEST POP POP POP POP PUSH1 0x40 MLOAD RETURNDATASIZE PUSH1 0x1F NOT PUSH1 0x1F DUP3 ADD AND DUP3 ADD DUP1 PUSH1 0x40 MSTORE POP DUP2 ADD SWAP1 PUSH2 0x19DC SWAP2 SWAP1 PUSH2 0x1BDF JUMP JUMPDEST POP PUSH1 0x15 SLOAD PUSH1 0x4 DUP1 SLOAD PUSH1 0x1 PUSH1 0x1 PUSH1 0xA0 SHL SUB SWAP1 SWAP3 AND SWAP2 PUSH4 0xA9059CBB SWAP2 SWAP1 DUP10 SWAP1 DUP2 LT PUSH2 0x1A15 JUMPI PUSH4 0x4E487B71 PUSH1 0xE0 SHL PUSH1 0x0 MSTORE PUSH1 0x32 PUSH1 0x4 MSTORE PUSH1 0x24 PUSH1 0x0 REVERT JUMPDEST PUSH1 0x0 SWAP2 DUP3 MSTORE PUSH1 0x20 SWAP1 SWAP2 KECCAK256 ADD SLOAD PUSH1 0x40 MLOAD PUSH1 0xE0 DUP4 SWAP1 SHL PUSH1 0x1 PUSH1 0x1 PUSH1 0xE0 SHL SUB NOT AND DUP2 MSTORE PUSH1 0x1 PUSH1 0x1 PUSH1 0xA0 SHL SUB SWAP1 SWAP2 AND PUSH1 0x4 DUP3 ADD MSTORE PUSH1 0x24 DUP2 ADD DUP5 SWAP1 MSTORE PUSH1 0x44 ADD PUSH1 0x20 PUSH1 0x40 MLOAD DUP1 DUP4 SUB DUP2 PUSH1 0x0 DUP8 DUP1 EXTCODESIZE ISZERO DUP1 ISZERO PUSH2 0x1A69 JUMPI PUSH1 0x0 DUP1 REVERT JUMPDEST POP GAS CALL ISZERO DUP1 ISZERO PUSH2 0x1A7D JUMPI RETURNDATASIZE PUSH1 0x0 DUP1 RETURNDATACOPY RETURNDATASIZE PUSH1 0x0 REVERT JUMPDEST POP POP POP POP PUSH1 0x40 MLOAD RETURNDATASIZE PUSH1 0x1F NOT PUSH1 0x1F DUP3 ADD AND DUP3 ADD DUP1 PUSH1 0x40 MSTORE POP DUP2 ADD SWAP1 PUSH2 0x1AA1 SWAP2 SWAP1 PUSH2 0x1BDF JUMP JUMPDEST POP PUSH1 0x11 PUSH1 0x4 DUP8 DUP2 SLOAD DUP2 LT PUSH2 0x1AC5 JUMPI PUSH4 0x4E487B71 PUSH1 0xE0 SHL PUSH1 0x0 MSTORE PUSH1 0x32 PUSH1 0x4 MSTORE PUSH1 0x24 PUSH1 0x0 REVERT JUMPDEST PUSH1 0x0 SWAP2 DUP3 MSTORE PUSH1 0x20 DUP1 DUP4 KECCAK256 SWAP1 SWAP2 ADD SLOAD DUP4 SLOAD PUSH1 0x1 DUP2 ADD DUP6 SSTORE SWAP4 DUP4 MSTORE SWAP1 DUP3 KECCAK256 SWAP1 SWAP3 ADD DUP1 SLOAD PUSH1 0x1 PUSH1 0x1 PUSH1 0xA0 SHL SUB NOT AND PUSH1 0x1 PUSH1 0x1 PUSH1 0xA0 SHL SUB SWAP1 SWAP4 AND SWAP3 SWAP1 SWAP3 OR SWAP1 SWAP2 SSTORE PUSH2 0x1B0E SWAP1 PUSH1 0x4 SWAP1 PUSH2 0x1B7E JUMP JUMPDEST POP POP PUSH1 0x0 PUSH1 0x2 SSTORE POP POP POP POP JUMP JUMPDEST PUSH1 0x0 DIFFICULTY TIMESTAMP PUSH1 0x4 NUMBER PUSH1 0x40 MLOAD PUSH1 0x20 ADD PUSH2 0x1B35 SWAP5 SWAP4 SWAP3 SWAP2 SWAP1 PUSH2 0x1D4C JUMP JUMPDEST PUSH1 0x40 MLOAD PUSH1 0x20 DUP2 DUP4 SUB SUB DUP2 MSTORE SWAP1 PUSH1 0x40 MSTORE DUP1 MLOAD SWAP1 PUSH1 0x20 ADD KECCAK256 PUSH1 0x0 SHR SWAP1 POP SWAP1 JUMP JUMPDEST PUSH1 0x0 PUSH2 0x1B5F DUP3 DUP5 PUSH2 0x1DC9 JUMP JUMPDEST SWAP4 SWAP3 POP POP POP JUMP JUMPDEST PUSH1 0x0 PUSH2 0x1B5F DUP3 DUP5 PUSH2 0x1DB5 JUMP JUMPDEST PUSH1 0x0 PUSH2 0x1B5F DUP3 DUP5 PUSH2 0x1DE8 JUMP JUMPDEST POP DUP1 SLOAD PUSH1 0x0 DUP3 SSTORE SWAP1 PUSH1 0x0 MSTORE PUSH1 0x20 PUSH1 0x0 KECCAK256 SWAP1 DUP2 ADD SWAP1 PUSH2 0x1B9C SWAP2 SWAP1 PUSH2 0x1B9F JUMP JUMPDEST POP JUMP JUMPDEST JUMPDEST DUP1 DUP3 GT ISZERO PUSH2 0x1BB4 JUMPI PUSH1 0x0 DUP2 SSTORE PUSH1 0x1 ADD PUSH2 0x1BA0 JUMP JUMPDEST POP SWAP1 JUMP JUMPDEST PUSH1 0x0 PUSH1 0x20 DUP3 DUP5 SUB SLT ISZERO PUSH2 0x1BC9 JUMPI DUP1 DUP2 REVERT JUMPDEST DUP2 CALLDATALOAD PUSH1 0x1 PUSH1 0x1 PUSH1 0xA0 SHL SUB DUP2 AND DUP2 EQ PUSH2 0x1B5F JUMPI DUP2 DUP3 REVERT JUMPDEST PUSH1 0x0 PUSH1 0x20 DUP3 DUP5 SUB SLT ISZERO PUSH2 0x1BF0 JUMPI DUP1 DUP2 REVERT JUMPDEST DUP2 MLOAD DUP1 ISZERO ISZERO DUP2 EQ PUSH2 0x1B5F JUMPI DUP2 DUP3 REVERT JUMPDEST PUSH1 0x0 PUSH1 0x20 DUP3 DUP5 SUB SLT ISZERO PUSH2 0x1C10 JUMPI DUP1 DUP2 REVERT JUMPDEST POP CALLDATALOAD SWAP2 SWAP1 POP JUMP JUMPDEST PUSH1 0x0 PUSH1 0x20 DUP3 DUP5 SUB SLT ISZERO PUSH2 0x1C28 JUMPI DUP1 DUP2 REVERT JUMPDEST POP MLOAD SWAP2 SWAP1 POP JUMP JUMPDEST PUSH1 0x20 DUP1 DUP3 MSTORE DUP3 MLOAD DUP3 DUP3 ADD DUP2 SWAP1 MSTORE PUSH1 0x0 SWAP2 SWAP1 DUP5 DUP3 ADD SWAP1 PUSH1 0x40 DUP6 ADD SWAP1 DUP5 JUMPDEST DUP2 DUP2 LT ISZERO PUSH2 0x1C70 JUMPI DUP4 MLOAD PUSH1 0x1 PUSH1 0x1 PUSH1 0xA0 SHL SUB AND DUP4 MSTORE SWAP3 DUP5 ADD SWAP3 SWAP2 DUP5 ADD SWAP2 PUSH1 0x1 ADD PUSH2 0x1C4B JUMP JUMPDEST POP SWAP1 SWAP7 SWAP6 POP POP POP POP POP POP JUMP JUMPDEST PUSH1 0x20 DUP1 DUP3 MSTORE PUSH1 0xE SWAP1 DUP3 ADD MSTORE PUSH14 0x4163636573732064656E69656421 PUSH1 0x90 SHL PUSH1 0x40 DUP3 ADD MSTORE PUSH1 0x60 ADD SWAP1 JUMP JUMPDEST PUSH1 0x20 DUP1 DUP3 MSTORE PUSH1 0x8 SWAP1 DUP3 ADD MSTORE PUSH8 0x4E6F742053616D65 PUSH1 0xC0 SHL PUSH1 0x40 DUP3 ADD MSTORE PUSH1 0x60 ADD SWAP1 JUMP JUMPDEST PUSH1 0x20 DUP1 DUP3 MSTORE PUSH1 0xE SWAP1 DUP3 ADD MSTORE PUSH14 0x4E6F2072652D656E7472616E6379 PUSH1 0x90 SHL PUSH1 0x40 DUP3 ADD MSTORE PUSH1 0x60 ADD SWAP1 JUMP JUMPDEST PUSH1 0x20 DUP1 DUP3 MSTORE PUSH1 0xD SWAP1 DUP3 ADD MSTORE PUSH13 0x1058D8D95CDCC819195B9A5959 PUSH1 0x9A SHL PUSH1 0x40 DUP3 ADD MSTORE PUSH1 0x60 ADD SWAP1 JUMP JUMPDEST PUSH1 0x20 DUP1 DUP3 MSTORE PUSH1 0x1A SWAP1 DUP3 ADD MSTORE PUSH32 0x4C6F7474657279206973206E6F74207374617274656420796574000000000000 PUSH1 0x40 DUP3 ADD MSTORE PUSH1 0x60 ADD SWAP1 JUMP JUMPDEST PUSH1 0x0 PUSH1 0x80 DUP3 ADD DUP7 DUP4 MSTORE PUSH1 0x20 DUP7 DUP2 DUP6 ADD MSTORE PUSH1 0x80 PUSH1 0x40 DUP6 ADD MSTORE DUP2 DUP7 SLOAD DUP1 DUP5 MSTORE PUSH1 0xA0 DUP7 ADD SWAP2 POP DUP8 DUP6 MSTORE DUP3 DUP6 KECCAK256 SWAP4 POP DUP5 JUMPDEST DUP2 DUP2 LT ISZERO PUSH2 0x1D9E JUMPI DUP5 SLOAD PUSH1 0x1 PUSH1 0x1 PUSH1 0xA0 SHL SUB AND DUP4 MSTORE PUSH1 0x1 SWAP5 DUP6 ADD SWAP5 SWAP3 DUP5 ADD SWAP3 ADD PUSH2 0x1D79 JUMP JUMPDEST POP POP DUP1 SWAP4 POP POP POP POP DUP3 PUSH1 0x60 DUP4 ADD MSTORE SWAP6 SWAP5 POP POP POP POP POP JUMP JUMPDEST PUSH1 0x0 DUP3 PUSH2 0x1DC4 JUMPI PUSH2 0x1DC4 PUSH2 0x1E5B JUMP JUMPDEST POP DIV SWAP1 JUMP JUMPDEST PUSH1 0x0 DUP2 PUSH1 0x0 NOT DIV DUP4 GT DUP3 ISZERO ISZERO AND ISZERO PUSH2 0x1DE3 JUMPI PUSH2 0x1DE3 PUSH2 0x1E45 JUMP JUMPDEST POP MUL SWAP1 JUMP JUMPDEST PUSH1 0x0 DUP3 DUP3 LT ISZERO PUSH2 0x1DFA JUMPI PUSH2 0x1DFA PUSH2 0x1E45 JUMP JUMPDEST POP SUB SWAP1 JUMP JUMPDEST PUSH1 0x0 DUP2 PUSH2 0x1E0E JUMPI PUSH2 0x1E0E PUSH2 0x1E45 JUMP JUMPDEST POP PUSH1 0x0 NOT ADD SWAP1 JUMP JUMPDEST PUSH1 0x0 PUSH1 0x0 NOT DUP3 EQ ISZERO PUSH2 0x1E2A JUMPI PUSH2 0x1E2A PUSH2 0x1E45 JUMP JUMPDEST POP PUSH1 0x1 ADD SWAP1 JUMP JUMPDEST PUSH1 0x0 DUP3 PUSH2 0x1E40 JUMPI PUSH2 0x1E40 PUSH2 0x1E5B JUMP JUMPDEST POP MOD SWAP1 JUMP JUMPDEST PUSH4 0x4E487B71 PUSH1 0xE0 SHL PUSH1 0x0 MSTORE PUSH1 0x11 PUSH1 0x4 MSTORE PUSH1 0x24 PUSH1 0x0 REVERT JUMPDEST PUSH4 0x4E487B71 PUSH1 0xE0 SHL PUSH1 0x0 MSTORE PUSH1 0x12 PUSH1 0x4 MSTORE PUSH1 0x24 PUSH1 0x0 REVERT INVALID LOG2 PUSH5 0x6970667358 0x22 SLT KECCAK256 0xE PUSH18 0x86CB9ED1BAA58D374D1C0E7A0944E009F9AF SWAP12 DIFFICULTY PUSH20 0xFE01F35A0EFBA048064736F6C63430008040033 "},"gasEstimates":{"creation":{"codeDepositCost":"1569400","executionCost":"infinite","totalCost":"infinite"},"external":{"UsdtInterface()":"1104","allWinner()":"infinite","allWinner1()":"infinite","allWinner2()":"infinite","announceLottery()":"infinite","announceLottery1()":"infinite","announceLottery2()":"infinite","getLottery1Length()":"1059","getLottery2Length()":"1104","getLotteryLength()":"1049","howMany(address)":"infinite","initization()":"1055","joinLottery(uint256)":"infinite","joinLottery1(uint256)":"infinite","joinLottery2(uint256)":"infinite","lotteryBalance()":"infinite","setMaximmNumbers(uint256)":"21154","setMaximmNumbers1(uint256)":"21176","setMaximmNumbers2(uint256)":"21110","setTicketPrice(uint256)":"21155","setTicketPrice1(uint256)":"21108","setTicketPrice2(uint256)":"21152","startLottery()":"21921","tokenAdress()":"1105","viewTicket()":"1082","viewTicket1()":"1037","viewTicket2()":"1103","viewTicketPrice()":"1104","viewTicketPrice1()":"1058","viewTicketPrice2()":"1103","winnerLottery(uint256)":"2124","winnerLottery1(uint256)":"2060","winnerLottery2(uint256)":"2060"},"internal":{"pickwinner()":"infinite","pickwinner1()":"infinite","pickwinner2()":"infinite","random()":"infinite"}},"methodIdentifiers":{"UsdtInterface()":"67b447de","allWinner()":"a7e9f0d1","allWinner1()":"d521cf2a","allWinner2()":"13002437","announceLottery()":"f77f15b5","announceLottery1()":"013fc0ab","announceLottery2()":"be69d7ff","getLottery1Length()":"a46eeb75","getLottery2Length()":"a0a7bda8","getLotteryLength()":"576aaa2b","howMany(address)":"602977ad","initization()":"6716f265","joinLottery(uint256)":"7eee9fc1","joinLottery1(uint256)":"ce5f6b9f","joinLottery2(uint256)":"3631ef4a","lotteryBalance()":"b2288649","setMaximmNumbers(uint256)":"3fc7adb6","setMaximmNumbers1(uint256)":"4ba35125","setMaximmNumbers2(uint256)":"17c6332c","setTicketPrice(uint256)":"15981650","setTicketPrice1(uint256)":"e437239f","setTicketPrice2(uint256)":"f0c30e95","startLottery()":"160344e2","tokenAdress()":"97c9c5a6","viewTicket()":"9ec80702","viewTicket1()":"a308761a","viewTicket2()":"db486929","viewTicketPrice()":"636ad6a6","viewTicketPrice1()":"ea6b0480","viewTicketPrice2()":"8644024b","winnerLottery(uint256)":"f19e8d86","winnerLottery1(uint256)":"56e0bd36","winnerLottery2(uint256)":"890d542f"}},"storageLayout":{"storage":[{"astId":1331,"contract":"contracts/lottery.sol:lottery","label":"locked","offset":0,"slot":"0","type":"t_bool"},{"astId":1354,"contract":"contracts/lottery.sol:lottery","label":"maxParticipantNumbers","offset":0,"slot":"1","type":"t_uint256"},{"astId":1356,"contract":"contracts/lottery.sol:lottery","label":"participantNumbers","offset":0,"slot":"2","type":"t_uint256"},{"astId":1358,"contract":"contracts/lottery.sol:lottery","label":"ticketPrice","offset":0,"slot":"3","type":"t_uint256"},{"astId":1361,"contract":"contracts/lottery.sol:lottery","label":"participants","offset":0,"slot":"4","type":"t_array(t_address_payable)dyn_storage"},{"astId":1363,"contract":"contracts/lottery.sol:lottery","label":"owner","offset":0,"slot":"5","type":"t_address"},{"astId":1366,"contract":"contracts/lottery.sol:lottery","label":"dev2","offset":0,"slot":"6","type":"t_address"},{"astId":1369,"contract":"contracts/lottery.sol:lottery","label":"dev","offset":0,"slot":"7","type":"t_address"},{"astId":1371,"contract":"contracts/lottery.sol:lottery","label":"maxParticipantNumbers1","offset":0,"slot":"8","type":"t_uint256"},{"astId":1373,"contract":"contracts/lottery.sol:lottery","label":"participantNumbers1","offset":0,"slot":"9","type":"t_uint256"},{"astId":1375,"contract":"contracts/lottery.sol:lottery","label":"ticketPrice1","offset":0,"slot":"10","type":"t_uint256"},{"astId":1378,"contract":"contracts/lottery.sol:lottery","label":"participants1","offset":0,"slot":"11","type":"t_array(t_address_payable)dyn_storage"},{"astId":1380,"contract":"contracts/lottery.sol:lottery","label":"maxParticipantNumbers2","offset":0,"slot":"12","type":"t_uint256"},{"astId":1382,"contract":"contracts/lottery.sol:lottery","label":"participantNumbers2","offset":0,"slot":"13","type":"t_uint256"},{"astId":1384,"contract":"contracts/lottery.sol:lottery","label":"ticketPrice2","offset":0,"slot":"14","type":"t_uint256"},{"astId":1387,"contract":"contracts/lottery.sol:lottery","label":"participants2","offset":0,"slot":"15","type":"t_array(t_address_payable)dyn_storage"},{"astId":1390,"contract":"contracts/lottery.sol:lottery","label":"initization","offset":0,"slot":"16","type":"t_bool"},{"astId":1393,"contract":"contracts/lottery.sol:lottery","label":"winnerLottery","offset":0,"slot":"17","type":"t_array(t_address)dyn_storage"},{"astId":1396,"contract":"contracts/lottery.sol:lottery","label":"winnerLottery1","offset":0,"slot":"18","type":"t_array(t_address)dyn_storage"},{"astId":1399,"contract":"contracts/lottery.sol:lottery","label":"winnerLottery2","offset":0,"slot":"19","type":"t_array(t_address)dyn_storage"},{"astId":1401,"contract":"contracts/lottery.sol:lottery","label":"tokenAdress","offset":0,"slot":"20","type":"t_address"},{"astId":1404,"contract":"contracts/lottery.sol:lottery","label":"UsdtInterface","offset":0,"slot":"21","type":"t_contract(IERC20)1020"}],"types":{"t_address":{"encoding":"inplace","label":"address","numberOfBytes":"20"},"t_address_payable":{"encoding":"inplace","label":"address payable","numberOfBytes":"20"},"t_array(t_address)dyn_storage":{"base":"t_address","encoding":"dynamic_array","label":"address[]","numberOfBytes":"32"},"t_array(t_address_payable)dyn_storage":{"base":"t_address_payable","encoding":"dynamic_array","label":"address payable[]","numberOfBytes":"32"},"t_bool":{"encoding":"inplace","label":"bool","numberOfBytes":"1"},"t_contract(IERC20)1020":{"encoding":"inplace","label":"contract IERC20","numberOfBytes":"20"},"t_uint256":{"encoding":"inplace","label":"uint256","numberOfBytes":"32"}}},"userdoc":{"kind":"user","methods":{},"version":1}}}}